:100000000C94330E0C946A0E0C946A0E0C946A0EC7
:100010000C946A0E0C946A0E0C946A0E0C946A0E80
:100020000C946A0E0C946A0E0C946A0E0C94002BBD
:100030000C946A0E0C946A0E0C946A0E0C946A0E60
:100040000C943F290C946A0E0C94AF290C948929C6
:100050000C946A0E0C946A0E0C946A0E0C946A0E40
:100060000C94E1290C946A0ED0A1D182D0B0D18237
:10007000D183D18120D0B4D0B0D182D187D0B8D0B3
:10008000BAD0B03A203300D0A1D182D0B0D180D143
:100090008BD0B520D0B4D0B0D0BDD0BDD18BD0B531
:1000A00000D0A2D0B0D0B9D0BC2DD0B0D183D182F5
:1000B0002049324300D09FD0BED182D0B5D180D16B
:1000C0008F20D0BFD0B0D0BAD0B5D182D0BED0B200
:1000D000001F10101E11111E1E11111E1010100EE7
:1000E00011111F11111111121418141211D09DD0D9
:1000F000B5D0B2D0B5D180D0BDD18BD0B920D1810F
:10010000D182D0B0D182D183D18100D0A1D182D08F
:10011000B0D182D183D18120D0B4D0B0D182D18767
:10012000D0B8D0BAD0B03A203300D0A1D182D0B06C
:10013000D180D18BD0B520D0B4D0B0D0BDD0BDD17E
:100140008BD0B500D0A2D0B0D0B9D0BC2DD0B0D11A
:1001500083D1822049324300D09FD0BED182D0B516
:10016000D180D18F20D0BFD0B0D0BAD0B5D182D07D
:10017000BED0B200D09FD0BED182D0B5D180D18FB9
:1001800020D0BFD0B0D0BAD0B5D182D0BED0B200CE
:10019000D0BED18220D0B4D0B0D182D187D0B8D057
:1001A000BAD0B000D09DD0B5D18220D0BFD0B0D0D1
:1001B000BAD0B5D182D0BED0B200D0A1D0B1D0BE1D
:1001C000D0B920D182D0B0D0B9D0BCD0B8D0BDD0B9
:1001D000B3D0B020D182D0B5D181D182D0B000D0FF
:1001E0009DD0B520D0B4D183D0B9D182D0B500D1C3
:1001F00081D0B2D18FD0B7D0B82E2E2E00D09FD1C3
:1002000080D0BED0B2D0B5D180D0BAD0B0002072EC
:10021000783D00207374617475733D002074696DBE
:10022000656F75743D00206275733D00206D6973C4
:100230007365643D0020617474656D7074733D0076
:10024000206F6B3D00206572726F723D004C494E0D
:100250004B2073746174653D0020706167655F7544
:10026000733D0020726561645F75733D005A4552AD
:100270004F5F54494D494E47206C6174655F7573FB
:100280003D0020736C6F70655F70615F733D00208F
:1002900077696E646F775F7370616E5F70613D0048
:1002A0002073645F70613D00207370616E5F7061E8
:1002B0003D00206D65616E5F70613D002077696E65
:1002C000646F77733D00206E3D005A45524F207297
:1002D000656164793D0020D0BC2FD18100D09DD0D4
:1002E000B520D0B4D183D0B9D182D0B500D0BDD1A2
:1002F00083D0BBD18F2E2E2E00D09FD180D0BED0E8
:10030000B2D0B5D180D0BAD0B000D09FD180D0B813
:10031000D0BDD18FD182D0BE00D094D183D0B9D1FD
:1003200082D0B500D09DD0B520D0B4D183D0B9D182
:1003300082D0B5002063002063005A45524F5F46CB
:1003400041494C20726561736F6E3D00207065619C
:100350006B5F70613D002064705F70613D002063E1
:100360006F6E6669726D65643D00464C4F57207034
:1003700061737365643D0052455455524E2070615F
:10038000737365643D00206E3D00464C4F575F46D9
:1003900041494C20726561736F6E3D005245545562
:1003A000524E5F4641494C20726561736F6E3D004D
:1003B0002072783D00207374617475733D0052455E
:1003C0004144206572726F723D00D09DD0B5D0B2AD
:1003D000D0B5D180D0BDD18BD0B920D181D182D040
:1003E000B0D182D183D18100D09ED186D0B5D0BD8D
:1003F000D0B8D182D0B520D185D0BED0B400D09FA6
:10040000D180D0BED185D0BED0B420D0BAD180D1D9
:100410008BD0BBD0B000D0A2D095D0A1D0A220D09C
:10042000A1D095D0A0D092D09E00534552564F20D7
:10043000646F6E6500534552564F20616374697650
:100440006500534552564F2073637265656E0053C5
:100450004552564F20626567696E00000000002318
:100460000026002900494E495420726561647900D4
:10047000494E4954206F6C65645F646F6E65004936
:100480004E4954206F6C65645F626567696E005207
:1004900045534554206D637573723D00424F4F5470
:1004A0002077696E672D746573746572207065615D
:1004B0006B2D73706565642D763100524553544140
:1004C0005254207069746F742D636F6E6E6563741F
:1004D000656400D0A2D0B5D181D18220D0BFD180B7
:1004E000D0BED0B9D0B4D0B5D0BD00D181D0BAD0B3
:1004F000BED180D0BED181D182D18C00D09CD0B071
:10050000D0BAD181D0B8D0BCD0B0D0BBD18CD0BD06
:10051000D0B0D18F00D09DD0B5D18220D180D0B5C0
:10052000D0B0D0BAD186D0B8D0B800D09DD0B5D197
:100530008220D0B2D0BED0B7D0B2D180D0B0D182DC
:10054000D0B020D0BA20D0BDD183D0BBD18E00D0C6
:10055000A1D0B1D0BED0B920D182D0B0D0B9D0BC5A
:10056000D0B8D0BDD0B3D0B020D182D0B5D181D158
:1005700082D0B000D0A1D0B1D0BED0B920D182D02D
:10058000B0D0B9D0BCD0B8D0BDD0B3D0B020D1821B
:10059000D0B5D181D182D0B000D0A3D185D0BED08A
:1005A000B420D0BDD183D0BBD18F00D0A8D183D00F
:1005B000BC20D0B4D0B0D182D187D0B8D0BAD0B01E
:1005C00000D0A3D185D0BED0B420D0BDD183D0BBC4
:1005D000D18F00D0A8D183D0BC20D0B4D0B0D182EC
:1005E000D187D0B8D0BAD0B000D0A1D0B1D0BED0D1
:1005F000B920D182D0B0D0B9D0BCD0B8D0BDD0B3A2
:10060000D0B020D182D0B5D181D182D0B000D0A1DC
:10061000D0B1D0BED0B920D182D0B0D0B9D0BCD06A
:10062000B8D0BDD0B3D0B020D182D0B5D181D182E5
:10063000D0B00000000000240027002A00000000C5
:1006400000250028002B0004040404040404040210
:10065000020202020203030303030301020408105F
:10066000204080010204081020010204081020002C
:100670000000080002010000030407000000000061
:10068000000000650003020404040505090F00FDD5
:100690000AFD0BFF0193032A04AE200500C8332195
:1006A00008B10C330E91002208347B33225300230F
:1006B0000E861973A29661895A86256A012414B799
:1006C000F9F2C2418922294CD2350923A93288196D
:1006D000002511A7097342254A4AAD711AB5941233
:1006E00031012612A70973C4288BB228543529A9D1
:1006F0004595480B2706317C3306280CC3FBB29284
:1007000028897A8BB200290CC3FB32B2288B7A89F4
:1007100092082A0D7739F34A95B62D69AA65002B00
:100720000B7719F3E2DA3064710D2C0952DC328652
:100730002451002D071749330E012E07220C338652
:10074000002F0CA709B3D3382DA7E53406300DA729
:1007500009B3B64AEA6B92651300310DA709F3524B
:1007600031C9A2B8B76108320CA70973062555FB39
:10077000791802330EA709330E715ADDE3584D067E
:10078000053411A709735331C9A25A1226C390C662
:100790001500350FA709330E726548C4B8AC26831F
:1007A000023610A709B386288D2B4322AAD664509F
:1007B00000370EA709330E711AA7711AA7710838EE
:1007C00011A709B3B64A9A64D95649D524CB260055
:1007D000390FA70973062575548624AE4643043A9B
:1007E00008720C338678083B0AA2DC3286784812FD
:1007F000053C09A50A33B38E69073D0A4729330E24
:10080000393E0C013E0AA50A33D28E5947003F0EED
:10081000A70973062555E3B4398733004011A709AA
:10082000730625350D4AA6449322E78302410DA79E
:1008300009F3D224ABA4D6E16A0D4212A70933060C
:10084000294C523119A430498DC92001430DA70903
:1008500073062595FB9A0C0A00440DA70933062957
:100860004C523F268304450DA709330E727990E25E
:10087000E66108460CA709330E727990E2CE004774
:100880000FA70973062595DB86D49A0C0A00480A3F
:10089000A7093352D7E1EA35490AA50A330629ECFC
:1008A000A7414A0DA809F30635EF53980D19004BDF
:1008B00011A709335231C9A2DA988451560A9334E8
:1008C0004C0AA70933E2FE3C0C014D10A709335234
:1008D000755B2A4A458AA448B5064E0FA7093352CC
:1008E00075543229D21271B5064F0CA7097306252B
:1008F000F5D7645000500DA709332EA9751892B88A
:100900003300510EC7E9720625F54B2655063517FB
:100910005210A709332EA9751892282B8549AA06CB
:10092000530EA709730625B5EF5635191400540A5E
:10093000A709330E59DCDF00550BA7093352FF9A84
:100940000C0A005611A70933526B9245599455C2AF
:10095000244CD20C5710A70933524F9114499114CB
:1009600029DD12005810A709335235C92A699C267F
:1009700059255503590DA709335235C92A69DC1B7E
:10098000005A0CA709330E71DAE77818025B0AC423
:10099000FB3206AD7F1B025C0BA70933F2382FE751
:1009A000E53C5D0AC4FA3286AC7F1B045E0A4769E7
:1009B000F3D224ABA4015F0718F8320E02600733AC
:1009C0008B33B202610E770973063D4E8621159571
:1009D0002109620FA70933E296211155EBA80C09F2
:1009E00000630C7709730625955B934101640DA79D
:1009F00009B35B86445C1D952109650D7709730673
:100A0000255587733E2800660EA709F3B65216C512
:100A1000E120C68D006713A7D97286444CC2248C8E
:100A200086281F94544D0605680CA70933E29621C9
:100A30001155AF01690AA50A737474EC69106A0D47
:100A4000D6D93275CADA55342643026B0FA709335B
:100A5000E2564D493435D132250D6C09A50A33C60D
:100A6000FE34086D1077093316258AA4488AA448F5
:100A70008AD4006E0B77093392211155AF016F0CA8
:100A80007709730625F59A0C0A00700FA7D93292E0
:100A9000211155EBA80C495C06710DA7D97286444B
:100AA0005C1D9521891B720C770933A2494BC22426
:100AB0006E05730D7709730625D5075D4D06057420
:100AC0000C9709B3E270D8E26ED90275107709333A
:100AD000C2244CC2244CC2248C8624760E7709335F
:100AE0005235C9A2AC12266906770E7709335253E4
:100AF000244552A4744B00780D770933D224ABA45B
:100B000095AC9206790DA6D93242DF942515932132
:100B1000017A0A7709330E69AFC3107B0DC5FBB2AA
:100B200096B01A696A1656077C06C1FC323E7D0EE5
:100B3000C5F932D6B0966A521A5626007E0A37791F
:100B4000733429D21400000000080464063FFFFF3C
:100B5000040011C709B3F23A340C723C4871791899
:100B600002040112B70973B228CB916190E3418A64
:100B7000CBC310040213C7E9326E7179C84A599485
:100B8000455994C5A10204030CC70973DBB16190F8
:100B9000FB0C0404119709B3862894E3218BF330EE
:100BA0001A120004050FA709730625B5EF5635196B
:100BB000140004060BA50A330629ECA74104070D0F
:100BC000B50A33322D1DA4B0A74104080EA709F3BE
:100BD0008634EE4B180D1100040916A808330631AF
:100BE0000AA3300AA3258BB4488BB4485B00040ADF
:100BF00013A80833B27E1B86248BB4488BB4485BA1
:100C000000040B11A709336E7179C84A59944559EC
:100C10009405040C12C60933DBA1504BA2684BB2F9
:100C2000A8968401040D11B70973F25A2A6E89142B
:100C300029D9A8AA01040E12B70973B26C875247CA
:100C400065486235191400040F0DC7E93252FF3AA6
:100C50000C5A9C0104100EA709F3D224ABA4D6E1D0
:100C60006A0D04110FA709332E71795852D76148C4
:100C700000041213A7093306294C523119A4304934
:100C80008DC9200104130AA709330E727F060414CC
:100C900016B7F9B2862CCAA22CCAA25A9445599406
:100CA00025C3A00604150EA709330E727990E2E65B
:100CB0006108041614A70933A248AA3425B52D29C2
:100CC000254D91144905041710A7097306258D6B4E
:100CD0007B1CABC9A00004180FA7093352E3964848
:100CE00091928DAA35041912B70973B26C875271AB
:100CF0004BA448C946550D041A12A709335231C9ED
:100D0000A2DA988451560A9334041B14A7097386F7
:100D1000254CC2244CC2244CC2244C4235041C1124
:100D2000A7093352755B2A4A458AA448B506041DB3
:100D30000BA7093352D7E1EA35041E0DA709730644
:100D400025F5D7645000041F0AA709330EAA7F0DAA
:100D500004200EA709332EA9751892B83300042178
:100D60000EA70973062595FB9A0C0A0004220BA70F
:100D700009330E59DCDF0004230FA70933521F95F6
:100D80002189D5645000042415A709F3C2418922A2
:100D9000299222299222A932881900042511A70933
:100DA000335235C92A699C2659255503042617C78D
:100DB000E932C2244CC2244CC2244CC2244CC2642A
:100DC00018E20204270BA7093352AFC93077042871
:100DD00016A70933A2488AA4488AA4488AA4488A44
:100DE000A4681804042917C7E932A2488AA4488ACB
:100DF000A4488AA4488AA46818E402042A11A7090E
:100E000033E6E6212B65511665D19000042B12A71D
:100E1000093352D741D2122DD1122D19A400042C1E
:100E20000EA70933E2E661495D872101042D119780
:100E300009738628CCE36C8863311A2200042E15CE
:100E4000A70933A2A5A6644A36644AA6644AA664E2
:100E5000D202042F11A709738621B526C316D59295
:100E600050550304300F770973063D4E86211595C2
:100E70002109043111A709B393418993211155D751
:100E800064500004320F7709332EA93A0C49AA0E98
:100E9000430204330A7709330E72CF0004341287F9
:100EA000F9B2862CCAA22CAA4559320C6A00043524
:100EB0000E77097306255587733E280004360F7791
:100EC0000933A248AAB46D4953241504370E770993
:100ED0007306258DB35D4D060504380E7709335230
:100EE000714BA448C94635043911A70973B26C8700
:100EF00052714BA448C94635043A0F770933523131
:100F0000C9A2212B85491A043B107709B306298B06
:100F1000B2288BB2281B03043C0D770933D26DA98C
:100F200048916A0D043D0B77093352EB70B5060406
:100F30003E0D7709730625F59A0C0A00043F0A77DF
:100F400009330EAAAF01044010A7D93292211155DE
:100F5000EBA80C495C0604410D7709730625955BE7
:100F600093410104420B7709330E59DC1B00044303
:100F70000FA7D932521F952189D56450000444151A
:100F8000D7D9F2E2E2A04491144991144995418CD9
:100F90006B0004450E770933D224ABA495AC9206BE
:100FA00004461297E932C2244CC2244CC2244C8617
:100FB000212E04470B770933526B32CC0D044811B4
:100FC000770933A2488AA4488AA4488A86410449FA
:100FD0001297E932A2488AA4488AA4488A86412EF8
:100FE000044A0E770933E6F29095B2684800044B44
:100FF0000F77093352EB206989960C5200044C0E8E
:10100000770933E2F2B0A4EA302400044D0F7709E7
:101010007306258DB32156934101044E1177093390
:10102000A2A5A66443A6644A262D00044F0F7709A3
:10103000738621559361CA92500D045010B70973FD
:10104000F23A3828A93A9CF34101045112A70973D6
:10105000B228CBA14149D5E19C0F0A00045216C722
:10106000E972D2418B93494BC2244CC2244CC23802
:101070005B0004530CB70973DBB161907B06045429
:101080000F770973062595872C4E93410104550E61
:101090007709730625D5075D4D060504560A950A9E
:1010A00073F4B1A74104570DA50A33A2248AC79E41
:1010B000060104580EC6D9327568ED2A1A9321012B
:1010C00004591178087386300AA3309A5AA2485BF3
:1010D00000045A11770933A22CCAA26C58A2488A7C
:1010E000A405045B14A70973D2418B93494BC22416
:1010F0004CC2244CC200045C10A70973DB5231C9F6
:10110000A2212B85491A045D10A70973F25A2A6E91
:10111000891429D9A806045E12D7D972B26C8752F5
:101120001F952189D5645000045F0D97E932525F05
:1011300087418B3300046013A709732CA9299222DD
:1011400029922229922A160004610E7709732CA98C
:10115000299222A96201046213A709B3C2418CE358
:10116000212B65511665D19000046311A709B3E2E4
:10117000E220C6F19095B2684800046415A70933CF
:10118000A2A5A684493848499884499864D20204A3
:101190006511770933A2A5A68483948449262D007E
:1011A000046614A709F3D2244CC2242B0D52D21486
:1011B0004991B2040467107709F3D2244CB2D220CB
:1011C000252D4B00046814A70933B2A8524A4A4996
:1011D000DB70A92815A5A23404690F770933B2A8DA
:1011E000524ADA864B4569046A14A709330E4956F8
:1011F0000993341C9428922229920A046B107709CF
:10120000330E495649C3418922A900046C16A70927
:10121000339261C9A4A4942483142D2D4A45A9288E
:101220000D046D117709339261C9A42419A468696A
:10123000511A046E15F7D972B24A9A838392C6B5D1
:101240003D4E0625CE0705046F15E7D972B24A9ABE
:10125000838392C6D91E278312E78302047013A7E3
:101260000933A2488AA4488AA448AA0C625C0304F1
:101270007113A7D932A2488AA4488AA448AA0C624A
:101280005C0304720FA709730625B50E57D7645087
:101290000004730F77097306255587AB9A0C0A0073
:1012A000047414A70933523109A35A9445611226D4
:1012B0006192660004750F7709335231AA456112B5
:1012C000266906047615B70973A230CA91548CB208
:1012D000A816854998A41900047713A70973A230AA
:1012E000CA91548C6A519884499A01047818D7D9C4
:1012F00072D2244CC2A4A254948A52512A4A373939
:101300004CD204047915A7D972A244A92815A5A224
:1013100054946E7298A40900047A10C7F9F2C2417D
:101320008922D54F9541CC00047B1097F9F2C24138
:101330008922D5A932881900047C15C70973A341F5
:10134000CA6145494D9114499154191400047D1303
:10135000B70973A341CA6145494D911449954101AB
:10136000047E15B709730629A9438A929A22299205
:1013700022A9322800047F13A709730629A9438AEA
:10138000929A2229922A830204800EC7E9720625C6
:1013900095FBAEC7190004810D97E972062595DB10
:1013A000F5380304820EA71973E36CDEE26CDEE20B
:1013B00014048309359A3387210404840827A97308
:1013C000B66C04850B379973866852520004860BFD
:1013D0003799B386445A1300048811F7D972D2247E
:1013E0004A939C7F4993284D0204890FF6D972C213
:1013F000704A75BE84E1940A048A1AE8E972B270F0
:1014000007D3244D42254B4A955A22266992E64835
:101410009C00048B17C8E972B27007D32454B2A49D
:1014200054A9256292E6489C00048C14A80873E233
:1014300041CCF3614A9334499334191600048D105A
:10144000780873E241CC87294DD2645800048E0F8E
:10145000A709332EA92D198624959B01048F13A764
:10146000D93292211155533425CA9084491C030462
:10147000900AB709B387737F0604910A8709B38777
:1014800073CF0004920EA7097386254CE2748DBBBE
:101490000204930D77097386254CD235AE0204946D
:1014A00014C7E9326E7179C84A5994455994C5D127
:1014B000900004951197E9326E713C64A52CCAE244
:1014C000684800049616C7E932A248AA3425B52D0B
:1014D00029254D49292925720104971197E932A23E
:1014E00048AAB46D4953524AE402049812D7D972FB
:1014F00006258D6B7B1CABC920E6A106049911A7BC
:10150000D97206258DB35D4D06310F3500049A134F
:10151000C7E9325231C9A2DA988451560A93502E43
:10152000049B1097E9325231C9A2212B8549281713
:10153000049C12A70933524B94340D59524AA224E9
:10154000B506049D107709335231691AB2A41426E6
:101550006900049E13A80873D241AA95C23549A315
:10156000302B466900049F11A70973E274082B59B8
:10157000541BA3AC140604A013A70933B6288B6A26
:10158000513646599495B2280B04A10F770933B60A
:10159000A896846A1246590104A216C7E932C224E9
:1015A0004CC2244C86254CC2244CC224940B04A368
:1015B0001297E932C2244CC26458C2244C42B9008A
:1015C00004A416A70933B2218BB2288B06298BB24B
:1015D000288BB2288B0004A511770933B2218BB276
:1015E0006890B2288BB20804A618C7E932862CCAC4
:1015F000A22CCAA2258AA4488AA4482A670B000400
:10160000A71397E932862CCAA22C5AA2488AA47240
:10161000B60004A815C7E97286212E2D3525533250
:101620002553B264D0F22104A91297E97286218E63
:10163000969A9229593268F91004AA0FC7E97206DE
:101640002595FB9A0C5A2E0104AB0F97E9720625DB
:10165000955B9341CB250004AC0CC7E9320E59DCF5
:10166000CF720904AD0C97E9320E59DC592E0104F2
:10167000AE0DA70933D224ABA471DF0004AF0DA7D0
:10168000D932D224ABA471DF0004B010A70933D241
:1016900024ABA4717110E31A0004B110A7D932D29F
:1016A00024ABA4717110E31A0004B213C7E93252DB
:1016B00035C92A699C2659254C42B90004B30F97B5
:1016C000E932D224ABA495AC12CA0504B417C7E919
:1016D000320625CAA22CCAA22CCAA22CCAA22C1A33
:1016E000E40204B51297E9320625CAA22CCAA22C3C
:1016F000CAA2412E04B612C7E932C2244CC2244CFD
:10170000C268909BE50204B70F97E932C2244CC22D
:101710006890CB720104B810A7093352A748AA0CED
:101720005B9445710104B90F7709335229922AC39A
:101730001665511C04BA0DA70933E296211155AF65
:101740000104BB0BA50A33C22E26CD2D04BC11A764
:1017500009F3B64CC9942C19A6B82D5B0004BD0F33
:101760007709F3969A9225C31467D90204BE12C76B
:10177000E9F2B64CC9942C19A6B82D1B730504BF09
:101780001197E9F2969A9225C31467D9982B000411
:10179000C00AA30B3396A85F0604C113B70973B23E
:1017A0006C874A52A56D4B4A4953241504C212A7AF
:1017B0000973B26C874A52A56D4B9A22A90004C3E3
:1017C00015C7E9325231C9A2DA988451560A9334C6
:1017D0000E150004C41297E9325231C9A2212B859B
:1017E000491A870A0004C518C8E97286298CC228DC
:1017F0008CC2288CC2288CC224CD91380104C60E1C
:1018000098E9B206ADFF22E6489C0004C70EC7E97E
:101810003252D7E1EA350E150004C80D97E932526D
:10182000EB70B5C6A10204C919C8E932D2244DD261
:10183000244D86214993344993344973244E00043E
:10184000CA1498E932D2244DD264189234499334A0
:1018500047E20404CB0EC7E93252AFC930B7AA71D0
:101860000204CC0E97E932526B32CC55354E00044F
:10187000CD16C8E932D2244D34A57FAA4495344907
:10188000933447E20404CE1398E932D244537AAA3F
:10189000A4499AA43912270004D010B70973B26C76
:1018A00007B74AAA0E576B0004D112A70973B26C8E
:1018B000C7063D4E86211595210904D210B709733C
:1018C000B228CBB1AD92AAC3D51A04D313A709731A
:1018D000B228CBA1418F9361484565480204D416D4
:1018E000A709739421CAA22CCAA26C58A22CCAA21E
:1018F0002C1A0204D5107709732C512D4A0625CADB
:10190000A28A3204D612B70973B26C87862189E3A2
:10191000218BABC31004D711A70973B26CC706257E
:101920005587733E280004D80FA70973063D2E0F74
:10193000576B32280004D90E770973063D1EAE6A34
:1019400032280004DA12B70973B228CBA1418F877D
:10195000AB3519140004DB12A70973B228CBA141DF
:101960008F87AB9A0C0A0004DC15B70973B228CB39
:101970009128922A6D5B524A9A22A90004DD13A78E
:101980000973B228CB9128922A6D5BD214490504C1
:10199000DE12B70973B228CBA14149E3DAAE268340
:1019A0000204DF12A70973B228CBA14149E36C57A7
:1019B00093410104E00F9709330E715ADD63351925
:1019C000140004E10F97E9320E69EB90C76A3228E0
:1019D0000004E212B70973061D498D5B22454A36A1
:1019E000AA6A0004E311970973061D49C52D9122C7
:1019F000251BD50004E413B70973B228CB9154DC3E
:101A0000122952B251550304E512A70973B228CB2B
:101A10009154DC122952B2510D04E610B70973B289
:101A200028CBA141497D4D060504E710A70973B2F3
:101A300028CBA14149BD26830204E812A7097306F9
:101A400025B5644BB225AA3519140004E9117709AC
:101A500073062555B225D9123519140004EA15B7B5
:101A60000973B228CBA14149956C49B644559341BD
:101A70000104EB14A70973B228CBA14149956C4925
:101A8000B6444D060504EC14C709B39230C9B12120
:101A90000AF3381BE2588C860804ED13A709B392A9
:101AA00030C9B14149E36C88D564500004EE11B7E8
:101AB0000973061D493D2A4312ABC9A00004EF116A
:101AC000C7D972061D497D5486245693410104F0FE
:101AD00012B70973B228CB91D4511992584D06050B
:101AE00004F113D7D972B228CB91D4476548623537
:101AF00019140004F211B709B3BA43A9A33224B1EF
:101B00009A0C0A0004F311D7D9B2BA43A98FCA902C
:101B1000C46A32280004F40FB70973B228CB91D4F9
:101B20003519E60604F50FA70973B228CB91D49AAC
:101B30000C730304F814B70973B228CB91D43A4854
:101B40005AA2255A32480104F912A70973B228CBC8
:101B500091D43A485AA225831405000EA808F35BD5
:101B60008641F69C0C430005010EA709B35B864431
:101B70005C1D952109050214A80873F3DA2085512C
:101B8000988889988849322C00050314A70933E303
:101B90009A12455216658996484A22250005041175
:101BA000A70973B672514FC2244CC2244D000505DB
:101BB0000E770973B672A8276192260005060DC636
:101BC000E972A62CADC969AB5A05070D96E972A654
:101BD0002CCDE434550B050816A70973862CCAA230
:101BE0002CCAA22C4A4A49292925620205091277E2
:101BF0000973862CCAA22CCAA2A494880900050ADB
:101C000016A70933B2288BB2288B06294BB4444B54
:101C1000B4444C00050B11770933B2288BB268909D
:101C2000B2444BC404050C10A70973062595DB8646
:101C3000D49A0C0A00050D0F770973062595B32178
:101C400055934101050E10A709330E59DC254CC2EE
:101C5000244CD208050F0D7709330E59DC12266982
:101C600004000000BC2B11241FBECFEFD8E0DEBF64
:101C7000CDBF84B78093690514BE0FB6F894A895BC
:101C800080916000886180936000109260000FBEB8
:101C900011E0A0E0B1E0E6E8F5E702C005900D92A2
:101CA000A43DB107D9F725E0A4EDB1E001C01D9234
:101CB000A936B207E1F71EE0C3E3DEE004C02197D6
:101CC000FE010E94B43AC233D107C9F70E94D82C52
:101CD0000C94C13A0C940000662329F06A3019F084
:101CE000862F90E008958FEF9FEF0895AF92BF92F7
:101CF000CF92DF92EF92FF920F93CF93DF93EC019D
:101D0000DA017901942F9770E1E0F0E09F01092E4C
:101D100001C0220F0A94EAF7522F6E018AE8C80E1A
:101D2000D11CF601808140E0823018F4422F8130CE
:101D300049F15D01F8EFAF22E8ADF9AD28813981B5
:101D4000D90150968C918A9D90018B9D300D112464
:101D5000620F731FDF01A60FB71F01111AC0EA0E31
:101D6000FB1E8C91842B85278D93AE15BF05C9F77B
:101D7000DF91CF910F91FF90EF90DF90CF90BF90C8
:101D8000AF90089550E0D5CF440F550FE114F10402
:101D900079F33C91342B35273C939F5F9770E1E0BA
:101DA000EE1AF1089111F0CF2CAD3DADA20FB31F8B
:101DB000F6018081823028F4813009F051E041E061
:101DC000E5CF51E0E3CF80E0089590E080E0089512
:101DD0008F929F92AF92BF92FF920F931F93CF93D8
:101DE000DF93F090D0042BE02F1508F44CC0209125
:101DF000D20408E512E0021B110927FD1395000F1C
:101E0000111F000F111F2091D104C8E8D0E0C21BA0
:101E1000D10927FDD395CC0FDD1FCC0FDD1F4E015F
:101E20000D2E000CAA08BB089801012E000C440BD3
:101E3000550B281939094A095B09DC010E94D8377A
:101E400024EB30E040E050E00E94AE37820E931E5B
:101E5000A41EB51E8C169D062CF0E8018016910676
:101E60000CF4E4012297CC0FDD1F2FB7F8948F2DCF
:101E700090E0FC01EE0FFF1FE80FF91FE55DFB4F3F
:101E8000D283C1832FBFDF91CF911F910F91FF901C
:101E9000BF90AF909F908F9008959B01DC011896A2
:101EA000ED91FC9141E067E10994833081F028F4E1
:101EB000813099F08230A9F008958730A9F08830F8
:101EC000C9F08430B1F4809180008F7D03C080918F
:101ED00080008F7780938000089584B58F7784BDCC
:101EE000089584B58F7DFBCF8091B0008F7780936C
:101EF000B00008958091B0008F7DF9CF1F93CF93EC
:101F0000DF93282F30E0F901E159F94F8491F9016D
:101F1000E55AF94FD491F901E95BF94FC491CC230B
:101F2000A9F0162F81110E94550FEC2FF0E0EE0F53
:101F3000FF1FE35CF94FA591B4918FB7F894EC9132
:101F4000111108C0D095DE23DC938FBFDF91CF91B4
:101F50001F910895DE2BF8CFCF93DF9390E0FC0123
:101F6000E55AF94F2491895B994FFC0184918823AC
:101F7000D1F090E0880F991FFC01ED5CF94FA5911D
:101F8000B491FC01E35CF94FC591D491623071F4D6
:101F90009FB7F8943C91822F809583238C93E8819E
:101FA0002E2B28839FBFDF91CF9108958FB7F89490
:101FB000EC912E2B2C938FBFF6CF3FB7F8948091E6
:101FC0007E0390917F03A0918003B091810326B599
:101FD000A89B05C02F3F19F00196A11DB11D3FBF61
:101FE000BA2FA92F982F8827BC01CD01620F711D30
:101FF000811D911D42E0660F771F881F991F4A952A
:10200000D1F708958F929F92AF92BF92CF92DF92B5
:10201000EF92FF926B017C010E94DD0F4B015C018E
:10202000C114D104E104F104B9F00E94DD0F681974
:1020300079098A099B09683E73408105910580F3FF
:1020400021E0C21AD108E108F10888EE880E83E089
:10205000981EA11CB11CE4CFFF90EF90DF90CF90B1
:10206000BF90AF909F908F9008952FB7F894609194
:102070007A0370917B0380917C0390917D032FBF45
:10208000089508950895AF92BF92CF92DF92EF9294
:10209000FF920F931F93CF93DF936C017B018B0112
:1020A000040F151FEB015E01AE18BF08C017D10762
:1020B00059F06991D601ED91FC910190F081E02DEC
:1020C000C6010995892B79F7C501DF91CF911F9141
:1020D0000F91FF90EF90DF90CF90BF90AF90089559
:1020E000FC01538D448D252F30E0842F90E0821B1E
:1020F000930B541710F0CF96089501970895FC01A3
:10210000918D828D981761F0A28DAE0FBF2FB11DFA
:102110005D968C91928D9F5F9F73928F90E0089552
:102120008FEF9FEF0895FC01918D828D981731F00C
:10213000828DE80FF11D858D90E008958FEF9FEF60
:102140000895FC01918D228D892F90E0805C9F4F36
:10215000821B91098F739927089582E893E00E946A
:10216000A11021E0892B09F420E0822F089580E05E
:1021700090E0892B29F00E94AD1081110C94000091
:102180000895FC01A48DA80FB92FB11DA35ABF4F0C
:102190002C91848D90E001968F739927848FA68966
:1021A000B7892C93A089B1898C91837080648C93BA
:1021B000938D848D981306C00288F389E02D808169
:1021C0008F7D80830895EF92FF920F931F93CF939B
:1021D000DF93EC0181E0888F9B8D8C8D98131AC062
:1021E000E889F989808185FF15C09FB7F894EE8949
:1021F000FF896083E889F9898081837080648083A6
:102200009FBF81E090E0DF91CF911F910F91FF90F0
:10221000EF900895F62E0B8D10E00F5F1F4F0F7398
:102220001127E02E8C8D8E110CC00FB607FCFACF53
:10223000E889F989808185FFF5CFCE010E94C11020
:10224000F1CFEB8DEC0FFD2FF11DE35AFF4FF08224
:102250009FB7F8940B8FEA89FB8980818062CFCF8A
:102260000F931F93CF93DF938C01D0E0C0E0F80170
:10227000EC0FFD1F6491662341F082E893E00E9419
:10228000E310892B11F02196F2CFCE01DF91CF918F
:102290001F910F910895CF93DF93EC01888D8823D0
:1022A000B9F0AA89BB89E889F9898C9185FD03C0B9
:1022B000808186FD0DC00FB607FCF7CF8C9185FF9E
:1022C000F2CF808185FFEDCFCE010E94C110E9CF12
:1022D000DF91CF910895DC011A96ED91FC9130E0E9
:1022E00020E00994DC011696ED91FC9130E020E0AD
:1022F00040E069E10994DC011696ED91FC9130E033
:1023000020E040E068E109949A01DC011696ED9125
:10231000FC91462F67E10994EF92FF920F931F9370
:10232000CF93DF931F92CDB7DEB77C018B01D8012D
:102330006C91673129F150F46531A0F40F90DF9171
:10234000CF911F910F91FF90EF9008956A3118F18E
:102350006E3FA1F7F8014181498369E2C7010E94FC
:102360006B110BC0F80141814983D7011696ED919D
:10237000FC9130E020E0C70109950E5F1F4FD7CFD9
:10238000F80181818983AE014F5F5F4F61E0C70132
:102390000E948411F2CF0F5F1F4FD7011696ED9167
:1023A000FC9130E020E040E0C7010995C0CF462F06
:1023B000DC011696ED91FC9130E020E066E1099495
:1023C000462FDC011696ED91FC9130E020E065E1AE
:1023D0000994EF92FF920F931F93CF93DF93EC0139
:1023E000042F79016D3009F446C050F46B30C9F107
:1023F000693009F49FC06A3009F465C080E05CC0B0
:102400006E3009F44BC06F3099F70E947B11F701D1
:102410001381110F110F110F6C89160F60E4CE019B
:102420000E94E011612F62956F706061CE010E9481
:10243000E011612F6F70CE010E94D711F701648106
:10244000606BCE010E94D711F701408151816281FA
:10245000660F660F660FCE010E9484110150A1F72E
:1024600027C06DE371E0442311F068E371E0CE0111
:102470000E948C1120C0411109C061E371E00E94EB
:102480008C11E881F98182898C8B15C06AE271E038
:102490000E948C11E881F9818389F6CF0E947B111B
:1024A00061E8CE010E94E011602FCE010E94D71199
:1024B000CE010E94721181E0DF91CF911F910F91A7
:1024C000FF90EF900895EA85FB8530E020E040E042
:1024D00068E2CE010995EE81FF8130E020E040E026
:1024E00064E1CE01099541E06BE4CE010E946B11DD
:1024F000E881F981448169E2CE010E946B1140E0DC
:102500006BE4CE010E946B11E881F981448169E29C
:10251000CE010E946B1141E06BE4CE010E946B1171
:10252000E881F981458169E2CE010E946B1162E484
:1025300071E09DCF87E791E09983888382E0A4CF03
:10254000CF93DF931F92CDB7DEB76983BE016F5F74
:102550007F4F0E944D0F0F90DF91CF910895462F2E
:10256000DC011896ED91FC9130E020E060E20994E6
:10257000EF92FF920F931F93CF93DF938C01C62F9F
:10258000D42F7901673130F46531B8F4643131F01A
:1025900080E01BC0673101F16A31D0F7D80118968D
:1025A000ED91FC9197014D2F6C2FC801DF91CF91D8
:1025B0001F910F91FF90EF90099460E00E94AF127D
:1025C0006D2FC8010E94A01281E0DF91CF911F9171
:1025D0000F91FF90EF90089561E00E94AF12DECF5F
:1025E000FC016623D9F16A30C9F1808D811125C0C3
:1025F0006C3F48F085E0808F617070E0738B628B78
:102600002EEF3FEF29C0683F20F084E0808F637099
:10261000F4CF603F20F083E0808F6770EECF603EA4
:1026200020F082E0808F6F70E8CF262F30E0603C92
:1026300098F081E0808F6F71E0CF8150808F228988
:10264000338996E0220F331F9A95E1F76F73262B9B
:10265000338B228B8111D4CFC90108952FEF3FEF27
:10266000FBCF0F93FC01E05CFF4F0190F081E02D68
:102670004E1B5F0BDC01D496ED91FC9109950F91F7
:102680000895CF93DF93FC01A081B18182AD90E0EA
:102690009C0143E0220F331F4A95E1F737AF26AF85
:1026A00050962C91509748E0249F9001112435AF0B
:1026B00024AF23AD30E0B90153E0660F771F5A9580
:1026C000E1F7EF01C05CDF4F7983688351964C914D
:1026D0005197E901C80FD91F50E04C175D0718F456
:1026E000CA01821B930BEF01CE5BDF4F79836883B6
:1026F000229623E0880F991F2A95E1F7860F971FEE
:1027000099838883229654968D919C9155979983AD
:102710008883E85BFF4F56968D919C9191838083CF
:10272000DF91CF9108950F931F93FC01E25BFF4F60
:102730000190F081E02DDC01A05BBF4F0D90BC91BA
:10274000A02D4A175B0740F4E017F10748F0041783
:10275000150730F080E019C0E017F107C0F3FACF99
:10276000FC01E65BFF4F40815181845B9F4FFC0180
:10277000808191816817790758F481E042175307E7
:1027800020F081E02617370728F71F910F91089551
:1027900042175307B0F3DECF2F923F924F925F92D2
:1027A0006F927F928F929F92AF92BF92CF92DF9261
:1027B000EF92FF920F931F93CF93DF93CDB7DEB7C6
:1027C0002A970FB6F894DEBF0FBECDBF9A878987D0
:1027D000865B9F4F9A838983FC0111821082E98571
:1027E000FA85EA5BFF4F4080518029853A85245B5A
:1027F0003F4F3C832B83F90151824082E985FA8562
:10280000EE5BFF4F2080318029853A85225B3F4F68
:102810003E832D83F90131822082E985FA85EC5BC4
:10282000FF4F6080718029853A85205B3F4F388754
:102830002F83F90171826082E985FA85E85AFF4F9A
:10284000E080F180E985FA85EC5AFF4FA080B180E5
:10285000E985FA85EA5AFF4FC080D180E985FA857B
:10286000EE5AFF4F8080918087019501A601B40147
:1028700089859A850E94931329853A852C573F4F65
:102880003A87298781111BC0F90110822A960FB659
:10289000F894DEBF0FBECDBFDF91CF911F910F9196
:1028A000FF90EF90DF90CF90BF90AF909F908F9070
:1028B0007F906F905F904F903F902F90089581E0B0
:1028C000E985FA8580838114910421F0E981FA81F8
:1028D00091828082A414B50420F4EB81FC81B18242
:1028E000A0822C143D0420F4ED81FE81D182C082AF
:1028F000E614F70458F6EF81F885F182E082C6CF3E
:102900000F93CF93DF93E02FDC01AC57BF4FFC91C7
:10291000FF2309F460C02115310509F45CC02230A1
:10292000310538F0023009F04AC06F5F7F4F621BFB
:10293000730B0E2F0170E0FD52C0FC01E25BFF4FF4
:102940000190F081E02D4E175F0708F444C0FC01B0
:10295000E05BFF4F0190F081E02D4E175F07D8F547
:10296000FC01E45BFF4F0190F081E02DDC01A65BF0
:10297000BF4F0D90BC91A02D260F371F261737078C
:1029800038F56E177F0718F59F0121503109A217FE
:10299000B30708F56A177B0708F4BD012E173F0738
:1029A00008F4F901E61BF70BEC01AEA9BFA91496D8
:1029B0000D90BC91A02D9F01FD0109950CC0033025
:1029C00009F0B7CF4F5F5F4F421B530BB2CFBD0132
:1029D0006E177F07E0F2DF91CF910F910895FC0110
:1029E000E65BFF4F0190F081E02D6E177F0798F3B3
:1029F000FC01E45BFF4F0190F081E02D6E177F0733
:102A000050F7FC01E05BFF4F0190F081E02DDC010D
:102A1000A25BBF4F0D90BC91A02D240F351F241732
:102A20003507A8F44E175F0788F49F01215031093C
:102A3000A217B30780F64A175B0708F4AD012E17FB
:102A40003F0708F4F901E41BF50BAECFAD014E17BB
:102A50005F0708F6EDCF0F932091250530912605ED
:102A600062177307F0F0209127053091280562174F
:102A70007307B8F42091210530912205821793073E
:102A800080F020912305309124058217930748F4A4
:102A9000AB01BC0100E021E030E087ED94E00E9452
:102AA00080140F9108952F923F924F925F926F92F0
:102AB0007F928F929F92AF92BF92CF92DF92EF92CE
:102AC000FF920F931F93CF93DF937C018B016A01D9
:102AD000E9014901861A970A3A01680E791EB40184
:102AE000C3010E942B155E01AE18BF0828014C0CD3
:102AF0005D1CB501C2010E942B1516012E183F085E
:102B0000B401C1010E942B15C01AD10AB501C6013A
:102B10000E942B150C0F1D1FB801C3010E942B151D
:102B2000CE0DDF1DBE01C2010E942B15B801C101EF
:102B30000E942B15BE01C601DF91CF911F910F910D
:102B4000FF90EF90DF90CF90BF90AF909F908F90CD
:102B50007F906F905F904F903F902F900C942B152B
:102B60002F923F924F925F926F927F928F929F929D
:102B7000AF92BF92CF92DF92EF92FF920F93CF93DB
:102B8000DF9300D000D000D0CDB7DEB74C013B01C1
:102B90005E834D8379015B018FEFA81AB80A290182
:102BA000461A570ACA01880D991D9A83898301E044
:102BB0009501A201BC0187ED94E00E94801464019C
:102BC0009FEFC91AD90A1701281839088D819E81EB
:102BD000860D971D9C838B839601A101BC0187ED17
:102BE00094E00E9480148D819E81881999094C017E
:102BF0009501A201BC0187ED94E00E9480148D81B3
:102C00009E81861997099E838D839601A101BC013F
:102C100087ED94E00E9480149501A70169817A8173
:102C200087ED94E00E9480149601A7016B817C815E
:102C300087ED94E00E9480149501A701B40187ED0F
:102C400094E00E9480149601A7016D817E8187ED3A
:102C500094E00E94801426960FB6F894DEBF0FBE53
:102C6000CDBFDF91CF910F91FF90EF90DF90CF908C
:102C7000BF90AF909F908F907F906F905F904F909C
:102C80003F902F9008956F927F928F929F92AF9274
:102C9000BF92CF92DF92EF92FF920F931F93CF9349
:102CA000DF933C014B01EA0101E010E0041B150B2E
:102CB000EE24FF24E41AF50AEE0CFF1C9B01A3018D
:102CC000BE0190E080E00E94B015AA24A394B12C2C
:102CD000D12CC12C17FD06C0219782E0E80EF11C13
:102CE0000E0D1F1D8FEFC81AD80A82E0A80EB11C66
:102CF0000A0D1B1D9401A301BE01C6010E94B0155F
:102D0000CC16DD0638F3DF91CF911F910F91FF9024
:102D1000EF90DF90CF90BF90AF909F908F907F907B
:102D20006F9008952F923F924F925F926F927F9291
:102D30008F929F92AF92BF92CF92DF92EF92FF92CB
:102D40000F931F93CF93DF93CDB7DEB762970FB684
:102D5000F894DEBF0FBECDBF98E0E1E0F1E0DE0108
:102D6000199601900D929A95E1F798E0E9E0F1E06B
:102D7000DE01119601900D929A95E1F7662E712C65
:102D8000430128E0820E911CFE0131961F019E0135
:102D9000275F3F4F3A8B298B482E512C882D877007
:102DA000F10191911F015201A90EB11C97FDBA9436
:102DB000E989FA89E190FA8BE98B0E2C000CFF0867
:102DC000FFE6EF0EF11C882309F441C0833008F0C0
:102DD00040C082E0C82ED12C85010F5F1F4F0C0D23
:102DE0001D1D97012F5F3F4F2C0D3D1DA5014C1957
:102DF0005D09B7016C197D0987ED94E00E9493137A
:102E0000882329F0A601B501C7010E94431621E0DD
:102E1000821A91086814790409F0C0CF62960FB63F
:102E2000F894DEBF0FBECDBFDF91CF911F910F9100
:102E3000FF90EF90DF90CF90BF90AF909F908F90DA
:102E40007F906F905F904F903F902F90089583E018
:102E5000C1CF85010E5F1F4F97012E5F3F4FA50128
:102E600041505109B7016150710987ED94E00E940A
:102E70009313882361F29501A70161E070E090E06F
:102E800080E00E9453159501A70170E060E081E0A9
:102E900090E00E945315BBCFAF92BF92CF92DF92CA
:102EA000EF92FF920F931F93CF93DF936C01EB018F
:102EB0005A017B01E20EF31E9C01240F351F87018E
:102EC000AB01BC0187ED94E00E949313882361F06D
:102ED00000E09501AE01B60187ED94E00E948014F8
:102EE0002196EC16FD06A1F7DF91CF911F910F916E
:102EF000FF90EF90DF90CF90BF90AF90089521307A
:102F000069F038F0223079F0840F911D47FD9A95D1
:102F10000895860F911D67FD9A950895841B910968
:102F200047FD93950895861B910967FD9395089534
:102F3000213069F038F0223079F0861B910967FD65
:102F400093950895840F911D47FD9A950895860FD6
:102F5000911D67FD9A950895841B910947FD9395EE
:102F600008953F924F925F926F927F928F929F92BD
:102F7000AF92BF92CF92DF92EF92FF920F931F9387
:102F8000CF93DF937C01162F442EEC01C25ADF4F02
:102F90005E806F806C018AE8C80ED11C7884751839
:102FA000312E711608F4372C8C809D800E85202FD1
:102FB000462D652D8A819B810E947F175C01202F01
:102FC000462D652DC4010E949817AC01442079F06C
:102FD0008C85F6018083232D30E0B501C7010E9466
:102FE0008014171548F017196394512CD7CF8B858F
:102FF0008111F7CF8D85EDCF150D1E836F82DF9187
:10300000CF911F910F91FF90EF90DF90CF90BF90E5
:10301000AF909F908F907F906F905F904F903F9078
:103020000895DC011A964C911A97ED91FC91119735
:10303000249130E0042E02C0359527950A94E2F7DA
:10304000842F860F883068F031961196FC93EE93AA
:10305000E49198E0941B01C0EE0F9A95EAF72E2BAD
:1030600088501A968C938FEF9FEF01C0880F6A9556
:10307000EAF78095822308950F931F93CF93DF93F0
:103080008C01EC01C25ADF4F798368831A86FC01F8
:10309000EF58FF4F6081CE010E9411188887F80118
:1030A000EE58FF4F6081CE010E9411188987F80108
:1030B000E657FF4F90819C8781E0911180E08D87DA
:1030C000DF91CF911F910F910895CF93C62F0E944A
:1030D0001118C15021E030E001C0220FCA95EAF773
:1030E000821BCF910895FC01E60FF11D849190E0C1
:1030F000982F88273196E4918E0F911D0895809125
:103100003105909132058358964009F4AEC0E3E84A
:10311000F6E0F0933205E0933105E491E093440545
:10312000E4E8F6E0E491E0934505E5E8F6E0E491B3
:10313000E0934605E6E8F6E0E491E0934705E7E82A
:10314000F6E0E491E0934805E8E8F6E0E491E093E6
:103150004905E9E8F6E0E491E0934A05EAE8F6E09B
:10316000E491E0934B05EBE8F6E0E491E0934C0545
:10317000ECE8F6E0E491E0934D05EDE8F6E0E4914B
:10318000E0934E05EEE8F6E0E491E0934F05EFE8BA
:10319000F6E0E491E0935005E0E9F6E0E491E09395
:1031A0005105E1E9F6E0E491E0935205E2E9F6E049
:1031B000E491E0935305E3E9F6E0E491E0935405EC
:1031C00061E183E896E00E9473189093560580931E
:1031D000550563E183E896E00E94731890935805C3
:1031E0008093570565E183E896E00E9473189093F9
:1031F0005A05809359058091310590913205892BAC
:10320000A1F18091510580935D0540915205409355
:103210005E0590915C05992341F1913069F490919C
:103220005305891714F490935D0580915405841714
:10323000E4F480935E05089530914E052091500589
:10324000082E000C990B622F022E000C770B630FD7
:10325000711D37FD7A95861797071CF4320F30934E
:103260005D05241714F420935E050895EF92FF92F4
:103270000F931F93CF93DF93FC01E65AFF4F2081FA
:103280003181295E3F4F6F3F710509F048F5613686
:103290007105D8F080589F4FFC0180819181280FE3
:1032A000391FC9010196FC014491442309F447C028
:1032B000F90144914617170671F40196DF91CF91F9
:1032C0001F910F91FF90EF9008956134710548F3BD
:1032D00082589F4FE1CFFC018491280F311DE1CF2F
:1032E0008B01FC01EE57FF4FC081D181C20FD31F6C
:1032F0007E0160E0C7010E947318C80FD91F62E009
:10330000C7010E947318F4E0EF0EF11C80179107BB
:1033100080F3FE01849190E0982F88273196E49104
:103320008E2B009761F00817190719F4CE01039648
:10333000C5CFFE013296E491CE0FD11DEACF90E0C9
:1033400080E0BCCFCF92DF92FF920F931F93CF9379
:10335000DF9310923D051092EF046C0180ECF82E83
:1033600010E000E0D0E0C0E0F60161916F01E09173
:10337000D904F091DA0487ED94E009958F3F98071E
:1033800089F18E3F2FEF920779F3BC0187ED94E02E
:103390000E943619009721F1BC0187ED94E00E944C
:1033A0003C1860914A0585E395E00E94651880937A
:1033B0005F0560914B0585E395E00E94651860917B
:1033C0004C0585E395E00E946518082F880F110BC6
:1033D00080ECF81202C0F0905F05C00FD11FC4CF7F
:1033E00080E0F3CF20913D05222399F080915F0585
:1033F000022E000C330B280F311D87FD3A95C20FAA
:10340000D31FC01BD10B1F1424F4CF0DD11DF7FC0B
:10341000DA95CE01DF91CF911F910F91FF90DF9050
:10342000CF9008958F929F92AF92BF92CF92DF92EA
:10343000EF92FF920F931F93CF93DF93EC017B01E9
:103440008A016901FC01E459FF4F8081813009F450
:103450006FC008F462C0823009F475C0833009F48B
:103460007DC0FE01E05AFF4FF182E0823296118367
:103470000083B601CE010E943619009709F4FFC0FF
:103480007E012EE5E20EF11CBC01CE010E943C182B
:10349000FE01E959FF4FB0803C966081C7010E9450
:1034A0006518882EFE01EC58FF4F6081C7010E940D
:1034B0006518082FFE01EB58FF4F6081C7010E947D
:1034C0006518A82EF701908419140CF090C0168589
:1034D0000B0D0195212F402F682D828193810E9431
:1034E0007F176C01F70193838283212F402F682D72
:1034F000848195810E949817AC01F701958384839C
:10350000113009F484C0A8F1123009F491C01330CD
:1035100009F4A4C08C01960136C0FE01E45AFF4FA5
:103520000190F081E02DCE010995080F191F99CF68
:10353000FE01E45AFF4F0190F081E02DCE01099584
:10354000E81AF90A8ECFFE01E45AFF4F0190F0818C
:10355000E02DCE010995081B190B83CFFE01E45A1B
:10356000FF4F0190F081E02DCE010995E80EF91E84
:1035700078CF9601290D311D97FC3A958C010B0DE2
:10358000111DB7FC1A95B601CE010E949313882332
:1035900071F1F701168217828E0101591F4F6E01DA
:1035A000F0E7CF0ED11CF8016081C7010E9411180D
:1035B000882EF6016081C7010E941118982E40E004
:1035C000682DCE010E94B11741E0692DCE010E9405
:1035D000B11761E0C7010E9411188111F0CFF70106
:1035E00087818B1504F3C657DF4F848588838A2D26
:1035F000AA0C990BDF91CF911F910F91FF90EF9043
:10360000DF90CF90BF90AF909F908F90089581E012
:1036100090E08B199109B7FC939596012F5F3F4F6E
:103620008A01090D111D97FC1A95C80ED91EABCF42
:1036300081E090E0BC016919710997FC73959601CE
:103640002F5F3F4F8B199109B7FC93958A010F5F4C
:103650001F4F480F591FC60ED71E95CF96012B0D31
:10366000311DB7FC3A9581E090E08919910997FCEA
:1036700093958A010F5F1F4F480F591F84CF90E029
:1036800080E0B8CFCF92DF92EF92FF920F931F931B
:10369000CF93DF93EC018B011092EF047A01D12CD0
:1036A000C12CF70161917F01E091D904F091DA0416
:1036B00087ED94E009958F3F980719F18E3F2FEF22
:1036C000920779F39C01A801BE0187ED94E00E9466
:1036D000121A20914305213059F038F0223059F068
:1036E000233061F0C80ED91EDCCFC80FD91FFACF26
:1036F000080F191FF7CFC81BD90BF4CF081B190BE4
:10370000F1CFC601DF91CF911F910F91FF90EF9004
:10371000DF90CF900895CF93DF93EC016BAFEEA9CC
:10372000FFA90190F081E02D0995EEA9FFA9028083
:10373000F381E02DCE01DF91CF910994AF92BF923A
:10374000CF92DF92EF92FF920F931F93CF93DF936D
:1037500000D000D01F92CDB7DEB78C01DC01DA9625
:10376000AC90DA97DB96EC90DB97ED91FC91B18809
:10377000FE2CD12CC12CD801ED91FC9111978089A0
:10378000D8962D913C911C82FD828B83B8E08B9F53
:10379000C00111248C9DA0018D9D500D9C9D500D4C
:1037A0001124240F351F3A832983D8011496ED91F3
:1037B000FC919E012F5F3F4F41E06FE0C8010995EA
:1037C000F3948F2D8E198A1528F4BFEFCB1ADB0ADC
:1037D000FB1488F20F900F900F900F900F90DF91D5
:1037E000CF911F910F91FF90EF90DF90CF90BF90FE
:1037F000AF9008950F931F93CF93DF93EC01862F23
:10380000642F8C32B8F48A32D8F5883239F1893293
:10381000E9F1803408F472C0982F9F73FE01E90F1C
:10382000F11D868D8F3F61F1903108F045C00E94F7
:103830007E0F26C08D3281F160F394EB980F9230A9
:1038400040F78F73C80FD11D8E8D411133C00E9478
:103850007E0F61E08E8D0E94AC0F12C08E01025E61
:103860001F4FD0E0F80181918F018F3F31F061E06F
:10387000D03108F062E00E94AC0FDF5FD63191F7E3
:1038800081E0DF91CF911F910F91089570E090E05A
:1038900080E00E940210F4CF85E090E0433010F009
:1038A00082E090E0880F991F880F991F0597019774
:1038B000F1F7E6CF62E0CFCF282F30E0F901E159F0
:1038C000F94F8491F901E55AF94F0491F901E95B47
:1038D000F94F1491112379F081110E94550FE12FB6
:1038E000F0E0EE0FFF1FE55AFB4FA591B491EC916C
:1038F0000E2381E009F480E0898FC2CF80E0C1CF40
:1039000020914202260F3327331F21323105ECF478
:1039100020919202FC0190E080E0243069F082E086
:103920000895A09142022191AC014E5D5D4FA40F1C
:10393000B52FB11D2C930196861798F38091420202
:10394000680F6093420280E0089581E0089510922C
:10395000920281E08093910210926C0261E082E118
:103960000E947E0F61E083E10E947E0FE9EBF0E0B0
:1039700080818E7F808380818D7F808388E48093A7
:10398000B80085E48093BC000895CF93DF9391E065
:103990009093BC028823B9F0C091B800D091BA00CE
:1039A0008091BC008A7B8093BC0060E082E10E9431
:1039B0007E0F60E083E10E947E0F0E94A71CD093DF
:1039C000BA00C093B800DF91CF9108950895E091B7
:1039D0006B0280916A02E81730F4F0E0EE5FFD4F71
:1039E000808190E008958FEF9FEF089590916B0292
:1039F00080916A022FEF3FEF981748F4E92FF0E02B
:103A0000EE5FFD4F208130E09F5F90936B02C90114
:103A1000089580916A0290916B02891B990B089519
:103A2000CF92DF92EF92FF920F931F93CF93DF938A
:103A30007C01CB018A0120919302222389F0EB01C2
:103A40006B01C40ED51ECC15DD0569F06991D70157
:103A5000ED91FC910190F081E02DC7010995F3CF24
:103A6000642F0E94801CC801DF91CF911F910F919C
:103A7000FF90EF90DF90CF900895CF93DF931F9248
:103A8000CDB7DEB76983209193022223F9F020910C
:103A9000B602203258F021E030E0FC01338322836B
:103AA00090E080E00F90DF91CF9108958091940293
:103AB000E82FF0E0EB56FD4F998190838F5F809364
:103AC00094028093B60281E090E0ECCF61E0CE01F9
:103AD00001960E94801CF7CF2091640384E0289F08
:103AE000F0011124E953FD4F80819181A281B381BE
:103AF0000196A11DB11D80839183A283B383809120
:103B00005403811112C0209354038091BF0280930B
:103B1000C3028091C0028093C4028091C10280934D
:103B2000C5028091C2028093C60208950F931F932D
:103B3000CF93C82F8B0180EF92E19093DA048093AA
:103B4000D904CB010E94A2199C016C2F70E090E077
:103B500080E02038310534F480E890E0821B930B3C
:103B60009595879520EF32E13093DA042093D904BC
:103B7000A801CF911F910F910C94421B9B01AC01A6
:103B8000E9EBF0E080818C7F808360E074E284EF79
:103B900090E00E94E0372F503109410951095695B4
:103BA0004795379527952093B8000895CF92DF92D7
:103BB000EF92FF920F931F93CF93DF936C01EB0172
:103BC0007B01E40EF51E10E000E0CE15DF0561F08C
:103BD0006991D601ED91FC910190F081E02DC60133
:103BE0000995080F191FF1CFC801DF91CF911F91DF
:103BF0000F91FF90EF90DF90CF900895CF92DF92DA
:103C0000EF92FF920F931F93CF93DF93EC016C0120
:103C100024E0C20ED11CFC01E057FF4F0190F0815F
:103C2000E02DC60109958E3FEFEF9E07D8F48E0177
:103C30000C561F4FF801408151817E01F2E9EF0ED1
:103C4000F11CF701608171819C01C6010E94121A6A
:103C5000C059DF4F28812130C1F078F02230B9F00F
:103C60002330E9F081E090E0DF91CF911F910F9137
:103C7000FF90EF90DF90CF900895F7012081318180
:103C8000820F931F91838083EDCFF801F7CFF70167
:103C900020813181281B390B31832083E3CFF80148
:103CA000F7CF089590E080E00895FC010190002096
:103CB000E9F73197AF01481B590BBC0182E893E04B
:103CC0000C9443108F929F92AF92BF920F931F93C9
:103CD000CF93DF93CDB7DEB7A1970FB6F894DEBFD1
:103CE0000FBECDBF19A2423008F44AE08E010F5D2D
:103CF0001F4F842E912CB12CA12CA50194010E9460
:103D0000E037E62FB901CA01EA30F4F4E05DD801EA
:103D1000EE938D01232B242B252B79F790E080E067
:103D2000109719F0CD010E94551EA1960FB6F89478
:103D3000DEBF0FBECDBFDF91CF911F910F91BF901E
:103D4000AF909F908F900895E95CE1CFCF93DF9380
:103D50000E943011EC0185EC91E00E94551E8C0F01
:103D60009D1FDF91CF9108950E94A61E82E893E0E7
:103D70000C944B111F93CF93DF93CDB7DEB7E09731
:103D80000FB6F894DEBF0FBECDBF182F4FE250E044
:103D9000CE0101960E946D3718AA80EF92E19093B0
:103DA000DA048093D904612F70E0AE014F5F5F4F5A
:103DB00090E080E00E94421BE0960FB6F894DEBFD0
:103DC0000FBECDBFDF91CF911F9108951F93CF9369
:103DD000DF93CDB7DEB7C054D1090FB6F894DEBF7C
:103DE0000FBECDBF182F4FE350E0CE0101960E94C9
:103DF0006D3721961FAE2197BE016F5F7F4F812FD8
:103E00000E94961DC05CDF4F0FB6F894DEBF0FBE58
:103E1000CDBFDF91CF911F9108954F925F926F9226
:103E20007F928F929F92AF92BF92CF92DF92EF924A
:103E3000FF920F931F93CF936B017C01742EAC0103
:103E40009B010E948E3A882399F088EC91E0CF91F3
:103E50001F910F91FF90EF90DF90CF90BF90AF90A8
:103E60009F908F907F906F905F904F900C94551E15
:103E700046015701E894B7F82FEF3FEF4FE75FE7B0
:103E8000C501B4010E948E3A81110DC02FEF3FEFA2
:103E90004FE75FE7C501B4010E947E3818161CF495
:103EA0008CEC91E0D4CF2FEF3FEF4FE75FE4C701F9
:103EB000B6010E94D63918161CF480ED91E0C7CFE8
:103EC0002FEF3FEF4FE75FECC701B6010E947E384E
:103ED00087FDF3CF20E030E0A901C701B6010E94C1
:103EE0007E3810E000E087FF0AC06DE282E893E0D0
:103EF0000E94E3108C01F7FAF094F7F8F094C0E018
:103F000060E070E080E09FE37C1641F020E030E06C
:103F100040E251E40E948338CF5FF6CFA7019601BB
:103F20000E9412382B013C010E94F5384B015C01C4
:103F30004AE00E94621E7C01E00EF11ECC23C1F11A
:103F4000C501B4010E9424399B01AC01C301B20137
:103F50000E9411384B015C016EE282E893E00E94FE
:103F6000E310E80EF91EC15018F120E030E040E205
:103F700051E4C501B4010E94DB392B013C010E94D0
:103F8000F5384B01B12CA12C4AE0C501B4010E94C7
:103F9000621EE80EF91EC501B4010E9424399B017E
:103FA000AC01C301B2010E9411384B015C01DBCFAF
:103FB000C701CF911F910F91FF90EF90DF90CF90AD
:103FC000BF90AF909F908F907F906F905F904F9039
:103FD0000895CF92DF92EF92FF920F931F93CF93AA
:103FE000DF93109264038FEF8093000160E87AE121
:103FF00086E090E00E94BE1D8091BC021092BC023F
:104000000E94DD0F6B017C0180919202811165C0DD
:1040100081E080939202809391029FEF90939002AF
:1040200010928F0293E090938E0280936D028091A4
:104030006D02806580936D0280916C02813009F081
:1040400091C010926C020E94DD0F6B017C01809187
:104050006D028093BB008091B8029091B902A0914B
:10406000BA02B091BB02892B8A2B8B2BA1F00E9444
:10407000DD0F0091B8021091B9022091BA0230917F
:10408000BB026C197D098E099F09061717072807BF
:10409000390708F443C08091BC0083FDD8CF85EC7C
:1040A0008093BC000E94DD0F6B017C018091920225
:1040B000813009F459C080918F02C4E0843010F43B
:1040C000C0918F02AEE6B2E0E2E0F2E080E08C1751
:1040D00051F19D9191938F5FFACF8091B8029091A9
:1040E000B902A091BA02B091BB02892B8A2B8B2B0B
:1040F00009F48ACF0E94DD0F0091B8021091B90235
:104100002091BA023091BB026C197D098E099F097A
:10411000061717072807390708F076CF8091B702EE
:104120000E94C51CC0E010926B02C0936A02C0934B
:10413000BE028091BC028823C9F182E080936403AF
:10414000809164038823D9F180916B02C81332C037
:1041500080E0DF91CF911F910F91FF90EF90DF9062
:10416000CF90089585EE9CCF8091B8029091B902CE
:10417000A091BA02B091BB02892B8A2B8B2B09F438
:1041800095CF0E94DD0F0091B8021091B9022091E5
:10419000BA023091BB026C197D098E099F0906177E
:1041A00017072807390708F081CFB8CFC43041F28C
:1041B00081E0C4CF8FE194E00E94F61CC5CF8FE16F
:1041C00094E00E94F61CEC018FE194E00E94F61C42
:1041D000182F8FE194E00E94F61C082F8FE194E0E5
:1041E0000E94F61CC093BF021093C0020093C1024C
:1041F0008093C202CE0126E0959587952A95E1F736
:1042000083709927982F8093000183E0923031F0DA
:1042100084E0933019F0992319F085E080936403CA
:1042200080916403811194CFDC2FCC27CC27DF73DE
:10423000C12BD0930303C093020381E08ACFCF92B6
:10424000DF92EF92FF926A017B010E9430114AE0F7
:10425000C701B601FF90EF90DF90CF900C94621EE3
:10426000CF93C82F8091010381114BC08AE693E060
:104270000E9430116C2F70E090E080E04AE00E94D4
:10428000621E4091EA025091EB026091EC02709143
:10429000ED0286E893E00E941F21809101038111C5
:1042A00009C04091000350E070E060E08EE593E0CB
:1042B0000E941F2186E593E00E9430116091EE027A
:1042C0007091EF028091F0029091F10242E00E9421
:1042D0000D1F8CE493E00E9430116091F202709106
:1042E000F3028091F4029091F50242E00E940D1FCA
:1042F00085EC91E00E94551E82E893E0CF910C94EA
:104300004B1187E793E0B4CFCF93DF9340915303F2
:1043100050E070E060E08DE492E00E941F21409147
:10432000640350E070E060E085E492E00E941F21A9
:10433000409158035091590360915A0370915B0367
:1043400080E492E00E941F2140916003509161033C
:10435000609162037091630385E392E00E941F21E4
:104360004091650350916603609167037091680303
:104370008CE292E00E941F21C7ECD2E04C815D816B
:104380006E817F8186E292E00E941F2148855985D7
:104390006A857B858CE192E00E941F21409100019B
:1043A00050E070E060E083E192E00E941F214091C4
:1043B000BE0250E070E060E08EE092E00E941F21BB
:1043C00085EC91E00E94551E82E893E0DF91CF9149
:1043D0000C944B118091150390911603A091170333
:1043E000B091180382309105A105B105B0F0BC0170
:1043F000CD0161507109810991090E9424399B0105
:10440000AC01609123037091240380912503909166
:1044100026030E9483380C944E3A60E070E0CB0192
:10442000FACFCF92DF92EF92FF924091100350E0CB
:1044300070E060E08AEC92E00E941F214091150339
:1044400050911603609117037091180386EC92E067
:104450000E941F2140911D0350911E0370E060E0F7
:104460008CEB92E00E941F2182EB92E00E943011BF
:1044700060911F037091200380912103909122038A
:1044800043E00E940D1F88EA92E00E9430112091C3
:104490002703309128034091290350912A0360910A
:1044A0002B0370912C0380912D0390912E030E9479
:1044B000113843E00E940D1F80EA92E00E94301103
:1044C0000E94EA2143E00E940D1F8FE892E00E94C3
:1044D000301120913B0330913C0340913D035091BA
:1044E0003E0360913F03709140038091410390919E
:1044F00042030E94113843E00E940D1F82E892E0BF
:104500000E943011C0904B03D0904C03E0904D03BB
:10451000F0904E0320E030E0A901C701B6010E94EF
:10452000D63918160CF046C0A701960160914F03CA
:104530007091500380915103909152030E948338EF
:1045400043E00E940D1F85EC91E00E94551E4091B2
:1045500008035091090360910A0370910B038DE6E3
:1045600092E00E941F214091040350910503609145
:1045700006037091070383E692E00E941F2189E5FC
:1045800092E00E9430116091690370916A038091FA
:104590006B0390916C034AE00E94621E85EC91E0EF
:1045A0000E94551E82E893E0FF90EF90DF90CF903D
:1045B0000C944B1160E070E0CB01C2CFFC01A081F4
:1045C000B18150962C9182AD38E0839FC0011124B7
:1045D000289FA001299F500D112470E060E080AD5C
:1045E00091AD0C94BA3A1F93CF93DF93EC010E94E4
:1045F0009E1B1BAD8AAD180FE881F98181891817C0
:1046000068F0EC81FD8130E020E040E060E1CE0127
:10461000099580E0DF91CF911F910895FE01E55744
:10462000FF4F8081882319F0CE010E94DE22612F86
:10463000CE010E948B1B81E0EDCFCF93DF93EC0185
:10464000FC01E557FF4F8081882319F0CE010E94BD
:10465000DE2260E0CE01DF91CF910C948B1B8F9214
:104660009F92AF92BF92CF92DF92EF92FF920F9301
:104670001F93CF93DF938FE494E00E94B41E87EDE5
:1046800094E00E941D23C1E4CC2ED12CD0E8AD2EA5
:10469000B12C0E947F1866E174E08EE00E94E61E55
:1046A00000E020E730E044E150E068E070E087EDB2
:1046B00094E00E9480146EEF73E084E20E94E61E94
:1046C00029E530E04DE250E064E170E087ED94E0F0
:1046D0000E948014C4E1D0E046018C1A9D0AB40106
:1046E000CE010E942B157E0189E1E80EF11CB70175
:1046F000CE010E942B1585010C1B1D0BB401C801B6
:104700000E942B15B701C8010E942B152196C931B3
:10471000D10511F701E310E024E430E04AE250E073
:104720006DE370E087ED94E00E949313882341F0DD
:1047300043E050E06DE270E080E490E00E944316B8
:1047400068EE73E08FE30E94E61E87ED94E00E941E
:10475000F32281119ECF82E494E00E94B41E8CE586
:1047600090E00E94E80E8091D0048C3008F051C097
:1047700061E087E00E94AC0F8091D004282F30E0E8
:10478000F901EE0FFF1FE20FF31FE55DFB4F908174
:10479000907C976090831092D1041092D2042CE008
:1047A000622F0E94A83A829FB001112430E020E0DD
:1047B000AB01420F531FFA01EE0FFF1FE40FF51F6D
:1047C000E55DFB4F908196FD16C02F5F3F4F2C306B
:1047D000310571F781110FC01092800082E0809343
:1047E00081001092850010928400B19A80916F0030
:1047F000826080936F00E091D0048E2F90E0FC01E6
:10480000EE0FFF1FE80FF91FE55DFB4F808180640D
:10481000808385E394E00E94B41E64EF71E080E041
:1048200090E00E940210CCE5D0E0CE010E94E80E9C
:104830006AE070E080E090E00E9402102196C13AA8
:10484000D10599F7C0EAD0E0CE010E94E80E6AE0F7
:1048500070E080E090E00E9402102197C331D10502
:1048600099F7CE010E94E80E6AE070E080E090E0E7
:104870000E9402102196CD35D10599F78AE294E085
:10488000DF91CF911F910F91FF90EF90DF90CF902C
:10489000BF90AF909F908F900C94B41ECF92DF92F8
:1048A000EF92FF920F931F930E94DD0FF09073031E
:1048B000FF2009F494C00091FC021091FD022091A8
:1048C000FE023091FF02601B710B820B930B28EEEE
:1048D00033E040E050E00E94E037E0900003FF202A
:1048E00009F48EC080910103882309F4A5C02838FB
:1048F00083E138074105510508F07AC088E893E163
:10490000A0E0B0E0BC01CD01621B730B840B950BE2
:1049100069517C4F8F4F9F4F28EE33E040E050E0CD
:104920000E94E0372093F9013093FA014093FB0194
:104930005093FC01E092BD02FF20C9F1C090EE024D
:10494000D090EF02E090F002F090F102E894F7F8D6
:1049500020E030E040E450E4C701B6010E947E3818
:1049600018160CF049C0A7019601C701B6010E94B4
:1049700012382DEC3CEC4CE95FE30E9483380E9436
:104980004E3A20E030E040E251E40E94DB3920E082
:1049900030E040E05FE30E9412380E94F5386093F7
:1049A000FD017093FE018093FF01909300020E942D
:1049B000351020E530E040E050E00E94E0372770FD
:1049C0002093F80181E08093710387ED94E01F91BB
:1049D0000F91FF90EF90DF90CF900C941D230091EA
:1049E0000C0310910D0320910E0330910F036BCF38
:1049F00060E070E0CB018CCF60E070E0CB01C1CF14
:104A0000203187E2380741055105E0F01092F901A5
:104A10001092FA011092FB011092FC01E092BD028B
:104A2000C6CF1092F9011092FA011092FB01109278
:104A3000FC01E092BD0282CF203187E238074105B8
:104A4000510578F780E197E2A0E0B0E05BCF2F92CC
:104A50003F924F925F926F927F928F929F92AF920E
:104A6000BF92CF92DF92EF92FF920F931F93CF935B
:104A7000DF93CDB7DEB7C254D1090FB6F894DEBFCD
:104A80000FBECDBF3C014B0187ED94E00E941D237A
:104A9000A1EDAA2EA0E0BA2EF12CE12C2501F3E025
:104AA000CF2ED12CC701429623969FAF8EAF23976E
:104AB000F201249010E000E0312C80E190E0002E23
:104AC00002C0959587950A94E2F782219321892B5C
:104AD00091F024E030E044E050E0B601C801880FD6
:104AE000991F880F991F2396EEADFFAD23978E0F68
:104AF0009F1F0E944C170F5F1F4F05301105E9F6ED
:104B0000FFEF4F1A5F0A84E0C80ED11C9FE1C9165F
:104B1000D10471F6E8E1EE0EF11CF7E0AF0EB11C26
:104B200080E6E816F10409F0B9CF00E020E730E0B4
:104B300040E250E068E070E087ED94E00E9480146D
:104B40000E947F188114910441F1B3018EE20E940A
:104B5000E61EB4018DE30E94E61E87ED94E00E94FC
:104B6000F322811195CFCE5BDF4F0FB6F894DEBFF5
:104B70000FBECDBFDF91CF911F910F91FF90EF90AE
:104B8000DF90CF90BF90AF909F908F907F906F906D
:104B90005F904F903F902F9008954FE350E0B30106
:104BA000CE0101960E946D3721961FAE21979FE09E
:104BB00000E080E0E1E0F0E0EC0FFD1FE00FF11D10
:104BC0002081222389F09150A1F0203209F4802F16
:104BD0000F5FE1E0F0E0EC0FFD1FE00FF11D208121
:104BE000207C2038A9F3E6CFBE016F5F7F4F85E3BD
:104BF00025C08111082F10E0EE24E394F12CEC0E77
:104C0000FD1EE00EF11EF701D0801082BE016F5F25
:104C10007F4F8EE20E94961DF701D08261E070E026
:104C2000F0E2DF1611F070E060E0600F711F81E0CC
:104C300090E08C0F9D1F680F791F8DE30E94961DD9
:104C40008CCFCF93DF93EC0110927303109271031A
:104C500081E08093780370E060E0CE010E94272518
:104C60008091010381110CC08AE893E00E94301109
:104C7000CE010E94A61E80E0DF91CF910C943021DE
:104C80008CE993E0F3CFCF93DF93EC0110927203A2
:104C90001092710381E08093780370E060E0CE01B0
:104CA0000E9427258AE393E00E943011CE010E94E2
:104CB000A61EDF91CF910C941122E0916403E15084
:104CC0008AEC93E0E43038F4F0E0EE0FFF1FE15E91
:104CD000FE4F8081918120917303222321F10E9454
:104CE00021264091640350E070E060E08EEB93E099
:104CF0000E941F214091000150E070E060E085EBD0
:104D000093E00E941F2180EB93E00E94301160919C
:104D1000BE0270E090E080E04AE00E94621E85ECF6
:104D200091E00C94551E0E944326DBCF0F931F93F6
:104D3000CF9380915303823009F073C000916003D8
:104D400010916103209162033091630301151105F5
:104D50002105310531F18091580390915903A091BB
:104D60005A03B0915B03892B8A2B8B2BD1F4409192
:104D7000CB025091CC026091CD027091CE02809115
:104D8000CF029091D002A091D102B091D202840FB3
:104D9000951FA61FB71FE1E080179107A207B30771
:104DA00009F0E0E04091DF025091E0026091E10201
:104DB0007091E202452B462B472B49F070E060E0F2
:104DC0008AEB91E0CF911F910F910C94272560E918
:104DD00071E084EA91E0E111F5CF809154038230D3
:104DE000B1F038F4813071F070E060E08DEE90E069
:104DF000E9CF833089F08430B9F770E060E08BE070
:104E000091E0E0CF70E060E084E791E0DBCF64E424
:104E100071E088E591E0D6CF70E060E08AE291E051
:104E2000D1CF0E94351020E530E040E050E00E94F4
:104E3000E037C22FC77087ED94E00E941D230E94C7
:104E40007F186DEF71E08FE00E94BA1E6FEE71E087
:104E500080E20E94BA1E6C2F82E10E9492166FEDD2
:104E600071E08DE30E94E61E87ED94E00E94F3223C
:104E70008111E5CFCF911F910F9108950F931F934B
:104E8000CF93DF93EC01683109F46EC058F46431BC
:104E9000F9F0F901673181F080E0DF91CF911F9146
:104EA0000F910895693109F49CC06032A9F76AE452
:104EB000CE010E946B1156C0442309F453C0819166
:104EC0008EBD00000DB407FEFDCF8EB54150F4CF6E
:104ED000E881F9818C859D85AE85BF85892B8A2BDC
:104EE0008B2B41F480859185A285B3858C879D8726
:104EF000AE87BF87418169E4CE010E946B11CFB7B5
:104F0000F89480916502811127C0E1E5F6E0849173
:104F1000E5E6F6E09491E82FF0E0EE0FFF1FED5C80
:104F2000F94FA591B491EC91E92321F461E08AE075
:104F30000E947E0F61E08AE00E94AC0F8CB5806118
:104F40008CBD8CB580648CBD61E08DE00E94AC0F9F
:104F500061E08BE00E94AC0F809165028F5F8093CF
:104F60006502CFBF81E099CFE881F981E485E15006
:104F700090E0E33020F4F0E0E95DFE4F90810C8595
:104F80001D852E853F8540E052E16AE770E080E0B4
:104F9000041715072607370740F476956795579548
:104FA00047958F5F8630A1F787E09C709065282F2A
:104FB0002695922B809581709CBD8DBDE881F981ED
:104FC000408169E4CE010E946B11A881B981EA8514
:104FD000FB8530E020E012964C916CE2CE01099501
:104FE000C1CFA881B981EA85FB8530E020E0139626
:104FF0004C916CE20995E881F981418169E458CFCF
:1050000085ED8093BC008091B8029091B902A09187
:10501000BA02B091BB020796A11DB11D23E0B6955F
:10502000A795979587952A95D1F72091BC0024FDE7
:1050300003C01092920208954091B8025091B902B3
:105040006091BA027091BB02452B462B472B69F346
:105050000097A105B10541F02AE22A95F1F700C0B9
:105060000197A109B109E1CF8091B7020C94C51C49
:105070001F93CF93DF93EC01CB01BA012AE030E01C
:1050800040E050E00E94E037DA01C901162F2AE023
:10509000AE01BC01CD010E947C37FE0101900020D1
:1050A000E9F7CF0101978C1B9D0BFE01E80FF11D65
:1050B0009EE29083E1E0E80FEC0FFD2FF11D105D03
:1050C00010838E5F66ED72E08C0F9D2F911DDF9136
:1050D000CF911F910C946637CF92DF92EF92FF929F
:1050E0000F931F93CF93DF93CDB7DEB768970FB6BB
:1050F000F894DEBF0FBECDBF0E94DD0F6B017C01B7
:1051000080917303882309F48AC04091FD01509176
:10511000FE016091FF0170910002CE0101960E9494
:1051200038280E947F1880917303882309F48CC06B
:105130008091010364E273E0811108C08091BD0297
:1051400069E173E0882311F06AE073E08FE00E9468
:10515000BA1E6091F8018DE00E949216BE016F5F49
:105160007F4F88E20E94961D00E020E630E04DE28D
:1051700050E060E170E087ED94E00E94801460915F
:10518000F9017091FA018091FB019091FC012AE0F4
:10519000AE014F5F5F4F0E947C3764E373E0CE0146
:1051A00001960E945B37BE016F5F7F4F8DE30E94C7
:1051B000961D87ED94E00E94F32291E0811101C0D9
:1051C00090E0909371030E94DD0FDC01CB018C19FC
:1051D0009D09AE09BF090091690310916A032091EE
:1051E0006B0330916C03081719072A073B0740F43B
:1051F0008093690390936A03A0936B03B0936C034D
:1052000068960FB6F894DEBF0FBECDBFDF91CF9189
:105210001F910F91FF90EF90DF90CF9008956091D4
:10522000F9017091FA018091FB019091FC012AE053
:10523000AE014F5F5F4F0E947C3767E373E0CE01A2
:1052400001960E945B376DCF69EF72E08FE00E949C
:10525000BA1E6DEE72E080E20E94BA1E6091F80103
:1052600082E10E949216BE016F5F7F4F8EE20E9424
:10527000961D6DED72E08DE30E94E61E9ACF1F929F
:105280000F920FB60F9211242F933F938F939F93FA
:10529000AF93BF9380917A0390917B03A0917C039D
:1052A000B0917D033091790323E0230F2D3758F51A
:1052B0000196A11DB11D2093790380937A039093E9
:1052C0007B03A0937C03B0937D0380917E03909138
:1052D0007F03A0918003B09181030196A11DB11DB0
:1052E00080937E0390937F03A0938003B093810308
:1052F000BF91AF919F918F913F912F910F900FBED2
:105300000F901F90189526E8230F0296A11DB11D3E
:10531000D2CF1F920F920FB60F9211242F933F936B
:105320004F935F936F937F938F939F93AF93BF93AD
:10533000EF93FF9382E893E00E94C110FF91EF91F9
:10534000BF91AF919F918F917F916F915F914F919D
:105350003F912F910F900FBE0F901F9018951F92A5
:105360000F920FB60F9211242F938F939F93EF9369
:10537000FF93E0919203F09193038081E091980371
:10538000F091990382FD1BC0908180919B038F5FF8
:105390008F7320919C03821741F0E0919B03F0E012
:1053A000EE57FC4F958F80939B03FF91EF919F9158
:1053B0008F912F910F900FBE0F901F9018958081A5
:1053C000F4CF1F920F920FB60F9211242F933F9399
:1053D0004F935F936F937F938F939F93AF93BF93FD
:1053E000EF93FF938091B900887F803609F44AC01B
:1053F000F0F5883209F4A7C018F5803109F49BC094
:10540000B8F4882309F4F9C0883009F494C0FF91F6
:10541000EF91BF91AF919F918F917F916F915F912C
:105420004F913F912F910F900FBE0F901F901895A5
:10543000883109F488C0803251F78093900214C0FB
:10544000803409F49DC040F48033B9F38833F9F611
:105450008093900285ECB0C0803509F485C0883512
:1054600009F496C0883499F60E940028D0CF883974
:1054700009F48CC038F5883729F050F4883611F0DB
:10548000803729F683E0809392021092640257C01D
:10549000883809F47BC0803919F0803809F0B7CF1B
:1054A00080916402803208F071C0E091640281E072
:1054B0008E0F809364028091BB00F0E0EC5BFD4FA7
:1054C00080833DC0803B39F0E0F4803A09F479C034
:1054D000883A09F09CCF84E08093920210924302B4
:1054E00010924202E0916802F09169020995809160
:1054F000420281110FC081E0809342021092220289
:1055000009C0803C09F4A6CF883C09F4A3CF883BAE
:1055100009F07DCFE091430281E08E0F809343023A
:10552000F0E0EE5DFD4F80818093BB0090914302DF
:105530008091420229C080916D028093BB0085EC6E
:105540008093BC0064CF90918F0280918E02981757
:1055500058F5E0918F0281E08E0F80938F02F0E08A
:10556000E259FD4F8081E9CFE0918F0281E08E0FFB
:1055700080938F028091BB00F0E0E259FD4F808361
:1055800090918F0280918E029817C8F285E8D8CF4B
:10559000E0918F0281E08E0F80938F028091BB009B
:1055A000F0E0E259FD4F80838091910281115CCF40
:1055B00081E080936C0284EA8093BC001092920296
:1055C00026CF85EC8093BC001092920280916402F9
:1055D000803230F4E0916402F0E0EC5BFD4F108229
:1055E0006091640270E0E0916602F091670284E4E9
:1055F00092E00995109264020ACF1092900234CF83
:105600001F920F920FB60F9211242F933F934F9337
:105610005F936F937F938F939F93AF93BF93CF933A
:10562000DF93EF93FF9380910102C0914F04D0E08C
:1056300087FF24C01092850010928400809101029F
:105640008F5F8093010280910102082E000C990B5C
:105650008C179D0724F4809101028C30C4F1809155
:10566000840090918500049680349C4908F47AC0A7
:105670008091840090918500049676C0809101020B
:10568000082E000C990B8C179D07C4F6E0910102BF
:105690008E2FEE0F990BFC01EE0FFF1FE80FF91F85
:1056A000E55DFB4F808186FFC9CFE09101028E2F1F
:1056B000EE0F990BFC01EE0FFF1FE80FF91FE55DE0
:1056C000FB4F808160E08F730E947E0FB7CF2091E7
:1056D000840030918500E09101028E2FEE0F990B2E
:1056E000FC01EE0FFF1FE80FF91FE55DFB4F818105
:1056F0009281820F931F9093890080938800E0919C
:1057000001028E2FEE0F990BFC01EE0FFF1FE80F29
:10571000F91FE55DFB4F808186FF11C0E09101021A
:105720008E2FEE0F990BFC01EE0FFF1FE80FF91FF4
:10573000E55DFB4F808161E08F730E947E0FFF91DA
:10574000EF91DF91CF91BF91AF919F918F917F9119
:105750006F915F914F913F912F910F900FBE0F90DE
:105760001F90189580E49CE99093890080938800AD
:105770008FEF80930102E3CFCF93109285031092B5
:10578000840388EE93E0A0E0B0E0809386039093DA
:105790008703A0938803B093890323E931E0309312
:1057A00083032093820325EC30E030938F03209312
:1057B0008E0324EC30E0309391032093900320EC8F
:1057C00030E0309393032093920321EC30E0309348
:1057D00095032093940322EC30E0309397032093B9
:1057E000960326EC30E030939903209398031092AF
:1057F0009B0310929C0310929D0310929E031092A3
:105800002204109221048093230490932404A093F3
:105810002504B093260485EA91E0909320048093B8
:105820001F041092D6041092D5048CE69EE090934B
:1058300064058093630510926605109265051092C9
:105840006805109267051092EF0487EB91E0909342
:10585000D4048093D3041092D8041092D7041092E9
:10586000EC041092E3041092E4041092E504109208
:10587000E6048FEF8093ED048093F104E5EFF4E00C
:105880008BE095E0CFEFC1938E179F07E1F789EE8C
:1058900091E19093DC048093DB0488EB92E1909398
:1058A000DE048093DD048EE397E29093E00480931E
:1058B000DF048AEF9BE19093E2048093E10430E0FF
:1058C00020E040E069E087ED94E00E94E911109249
:1058D00032051092310586E79EE090930C05809387
:1058E0000B0580E594E09093100580930F0581E00F
:1058F00080931105109212051092400510926005D8
:1059000010925C0580936105809362058FEB91E0B6
:1059100090930E0580930D0587ED94E00E9441134E
:1059200010922A051092290510922E0510922D052D
:105930008FEF9FEF90932C0580932B05909330056C
:1059400080932F05E0910D05F0910E050280F38103
:10595000E02D87ED94E0099585EE9EE09093340567
:10596000809333051092430589E08093FE0488E01C
:105970008093FF048AE08093000580914F048C306F
:10598000A0F491E0980F90934F048093D00490E09E
:10599000FC01EE0FFF1FE80FF91FE55DFB4F88EBE1
:1059A0009BE092838183CF910895C093D004FBCF75
:1059B000CF93DF93CDB7DEB7AC970FB6F894DEBFC9
:1059C0000FBECDBF789484B5826084BD84B58160FC
:1059D00084BD85B5826085BD85B5816085BD8091BA
:1059E0006E00816080936E00109281008091810032
:1059F000826080938100809181008160809381002A
:105A0000809180008160809380008091B1008460EB
:105A10008093B1008091B00081608093B00080914C
:105A20007A00846080937A0080917A00826080930B
:105A30007A0080917A00816080937A0080917A0068
:105A4000806880937A001092C100E0919203F091F7
:105A5000930382E08083E0918E03F0918F031082A4
:105A6000E0919003F091910380E1808310929A037A
:105A7000E0919603F091970386E08083E091940390
:105A8000F0919503808180618083E0919403F0918F
:105A90009503808188608083E0919403F091950361
:105AA000808180688083E0919403F09195038081E8
:105AB0008F7D80838CE994E00E94A61E8FE894E09D
:105AC0000E9430116091690570E090E080E040E153
:105AD0000E94621E85EC91E00E94551E8FE794E0C3
