:100000000C94190E0C94500E0C94500E0C94500E2F
:100010000C94500E0C94500E0C94500E0C94500EE8
:100020000C94500E0C94500E0C94500E0C94AC2961
:100030000C94500E0C94500E0C94500E0C94500EC8
:100040000C94EB270C94500E0C945B280C943528E0
:100050000C94500E0C94500E0C94500E0C94500EA8
:100060000C948D280C94500ED0A1D182D0B0D182A6
:10007000D183D18120D0B4D0B0D182D187D0B8D0B3
:10008000BAD0B03A203300D0A1D182D0B0D180D143
:100090008BD0B520D0B4D0B0D0BDD0BDD18BD0B531
:1000A00000D0A2D0B0D0B9D0BC2DD0B0D183D182F5
:1000B0002049324300D09FD0BED182D0B5D180D16B
:1000C0008F20D0BFD0B0D0BAD0B5D182D0BED0B200
:1000D000001F10101E11111E1E11111E1010100EE7
:1000E00011111F11111111121418141211D09DD0D9
:1000F000B5D0B2D0B5D180D0BDD18BD0B920D1810F
:10010000D182D0B0D182D183D18100D0A1D182D08F
:10011000B0D182D183D18120D0B4D0B0D182D18767
:10012000D0B8D0BAD0B03A203300D0A1D182D0B06C
:10013000D180D18BD0B520D0B4D0B0D0BDD0BDD17E
:100140008BD0B500D0A2D0B0D0B9D0BC2DD0B0D11A
:1001500083D1822049324300D09FD0BED182D0B516
:10016000D180D18F20D0BFD0B0D0BAD0B5D182D07D
:10017000BED0B200D09FD0BED182D0B5D180D18FB9
:1001800020D0BFD0B0D0BAD0B5D182D0BED0B200CE
:10019000D0BED18220D0B4D0B0D182D187D0B8D057
:1001A000BAD0B000D09DD0B5D18220D0BFD0B0D0D1
:1001B000BAD0B5D182D0BED0B200D0A1D0B1D0BE1D
:1001C000D0B920D182D0B0D0B9D0BCD0B8D0BDD0B9
:1001D000B3D0B020D182D0B5D181D182D0B000D0FF
:1001E0009DD0B520D0B4D183D0B9D182D0B500D1C3
:1001F00081D0B2D18FD0B7D0B82E2E2E00D09FD1C3
:1002000080D0BED0B2D0B5D180D0BAD0B0002072EC
:10021000783D00207374617475733D002074696DBE
:10022000656F75743D00206275733D0020657272C4
:100230006F72733D00206D69737365643D002061CA
:100240007474656D7074733D00206F6B3D002064A5
:100250006961676E6F737469633D002066697273CC
:10026000745F6572726F723D00206572726F723DCD
:10027000004C494E4B2073746174653D00207061E1
:1002800067655F75733D0020726561645F75733DDE
:10029000005A45524F5F54494D494E47206C617496
:1002A000655F75733D0020736C6F70655F70615F93
:1002B000733D002077696E646F775F7370616E5F66
:1002C00070613D002073645F70613D002073706158
:1002D0006E5F70613D00206D65616E5F70613D0015
:1002E0002077696E646F77733D00206E3D005A453C
:1002F000524F2072656164793D00D09DD0B520D009
:10030000B4D183D0B9D182D0B500D0BDD183D0BB18
:10031000D18F2E2E2E00D09FD180D0BED0B2D0B59E
:10032000D180D0BAD0B000D09FD180D0B8D0BDD1CC
:100330008FD182D0BE00D094D183D0B9D182D0B534
:1003400000D09DD0B520D0B4D183D0B9D182D0B562
:100350000020630020630020D0BC2FD181005A45CB
:10036000524F5F4641494C20726561736F6E3D008C
:10037000207065616B5F70613D002064705F70612B
:100380003D0020636F6E6669726D65643D00464C8A
:100390004F57207061737365643D00524554555248
:1003A0004E207061737365643D00206E3D00464CC5
:1003B0004F575F4641494C20726561736F6E3D0037
:1003C00052455455524E5F4641494C207265617307
:1003D0006F6E3D002072783D0020737461747573F8
:1003E0003D0052454144206572726F723D00D09DC0
:1003F000D0B5D0B2D0B5D180D0BDD18BD0B920D1BD
:1004000081D182D0B0D182D183D18100000000009F
:10041000230026002900207072657363616C657289
:100420003D0020545742523D002063616C63756C5F
:10043000617465643D00434C4F434B207265717598
:1004400065737465643D00494E4954206672616D60
:10045000655F646F6E6500494E4954206672616D38
:10046000655F626567696E00494E4954206F6C652F
:10047000645F646F6E6500494E4954206F6C65641B
:100480005F626567696E005245534554206D637520
:1004900073723D00424F4F542077696E672D74652B
:1004A00073746572207265636F6E6E6563742D760A
:1004B000320052455354415254207069746F742D68
:1004C000636F6E6E656374656400D0A2D0B5D18130
:1004D000D18220D0BFD180D0BED0B9D0B4D0B5D0D9
:1004E000BD00D09DD0B5D18220D180D0B5D0B0D0C4
:1004F000BAD186D0B8D0B800D09DD0B5D18220D0A6
:10050000B2D0BED0B7D0B2D180D0B0D182D0B020DE
:10051000D0BA20D0BDD183D0BBD18E00D0A1D0B174
:10052000D0BED0B920D182D0B0D0B9D0BCD0B8D054
:10053000BDD0B3D0B020D182D0B5D181D182D0B0DE
:1005400000D0A1D0B1D0BED0B920D182D0B0D0B926
:10055000D0BCD0B8D0BDD0B3D0B020D182D0B5D12E
:1005600081D182D0B000D0A3D185D0BED0B420D06C
:10057000BDD183D0BBD18F00D0A8D183D0BC20D037
:10058000B4D0B0D182D187D0B8D0BAD0B000D0A387
:10059000D185D0BED0B420D0BDD183D0BBD18F0007
:1005A000D0A8D183D0BC20D0B4D0B0D182D187D054
:1005B000B8D0BAD0B000D0A1D0B1D0BED0B920D17F
:1005C00082D0B0D0B9D0BCD0B8D0BDD0B3D0B020DC
:1005D000D182D0B5D181D182D0B000D0A1D0B1D05C
:1005E000BED0B920D182D0B0D0B9D0BCD0B8D0BDA7
:1005F000D0B3D0B020D182D0B5D181D182D0B000DB
:1006000000000000240027002A0000000000250050
:1006100028002B000404040404040404020202025F
:1006200002020303030303030102040810204080B5
:100630000102040810200102040810200000000834
:100640000002010000030407000000000000000099
:10065000650003020404040505090F00FD0AFD0BF3
:10066000FF0193032A04AE200500C8332108B10C12
:10067000330E91002208347B33225300230E861957
:1006800073A29661895A86256A012414B7F9F2C2C9
:10069000418922294CD2350923A932881900251114
:1006A000A7097342254A4AAD711AB5941231012641
:1006B00012A70973C4288BB228543529A945954837
:1006C0000B2706317C3306280CC3FBB29228897AAB
:1006D0008BB200290CC3FB32B2288B7A8992082A8C
:1006E0000D7739F34A95B62D69AA65002B0B77195A
:1006F000F3E2DA3064710D2C0952DC3286245100A9
:100700002D071749330E012E07220C3386002F0CBC
:10071000A709B3D3382DA7E53406300DA709B3B622
:100720004AEA6B92651300310DA709F35231C9A251
:10073000B8B76108320CA70973062555FB79180272
:10074000330EA709330E715ADDE3584D06053411F7
:10075000A709735331C9A25A1226C390C615003592
:100760000FA709330E726548C4B8AC268302361051
:10077000A709B386288D2B4322AAD6645000370ED2
:10078000A709330E711AA7711AA771083811A709A2
:10079000B3B64A9A64D95649D524CB2600390FA757
:1007A0000973062575548624AE4643043A08720C34
:1007B000338678083B0AA2DC3286784812053C0969
:1007C000A50A33B38E69073D0A4729330E393E0C1B
:1007D000013E0AA50A33D28E5947003F0EA709737E
:1007E000062555E3B4398733004011A70973062560
:1007F000350D4AA6449322E78302410DA709F3D29F
:1008000024ABA4D6E16A0D4212A7093306294C5243
:100810003119A430498DC92001430DA7097306255C
:1008200095FB9A0C0A00440DA7093306294C523F48
:10083000268304450DA709330E727990E2E661081C
:10084000460CA709330E727990E2CE00470FA70934
:1008500073062595DB86D49A0C0A00480AA709334B
:1008600052D7E1EA35490AA50A330629ECA7414ADD
:100870000DA809F30635EF53980D19004B11A70980
:10088000335231C9A2DA988451560A93344C0AA7DC
:100890000933E2FE3C0C014D10A7093352755B2A67
:1008A0004A458AA448B5064E0FA7093352755432FB
:1008B00029D21271B5064F0CA709730625F5D76426
:1008C0005000500DA709332EA9751892B833005166
:1008D0000EC7E9720625F54B26550635175210A7A7
:1008E00009332EA9751892282B8549AA06530EA7FD
:1008F00009730625B5EF5635191400540AA70933B4
:100900000E59DCDF00550BA7093352FF9A0C0A0081
:100910005611A70933526B9245599455C2244CD2B3
:100920000C5710A70933524F911449911429DD1225
:10093000005810A709335235C92A699C26592555F4
:1009400003590DA709335235C92A69DC1B005A0C1B
:10095000A709330E71DAE77818025B0AC4FB320686
:10096000AD7F1B025C0BA70933F2382FE7E53C5D36
:100970000AC4FA3286AC7F1B045E0A4769F3D224AC
:10098000ABA4015F0718F8320E026007338B33B255
:1009900002610E770973063D4E8621159521096285
:1009A0000FA70933E296211155EBA80C0900630C3F
:1009B0007709730625955B934101640DA709B35B25
:1009C00086445C1D952109650D77097306255587B9
:1009D000733E2800660EA709F3B65216C5E120C67D
:1009E0008D006713A7D97286444CC2248C86281FB9
:1009F00094544D0605680CA70933E296211155AFB2
:100A000001690AA50A737474EC69106A0DD6D932AB
:100A100075CADA55342643026B0FA70933E2564DE7
:100A2000493435D132250D6C09A50A33C6FE340888
:100A30006D1077093316258AA4488AA4488AD40001
:100A40006E0B77093392211155AF016F0C77097343
:100A50000625F59A0C0A00700FA7D932922111557C
:100A6000EBA80C495C06710DA7D97286445C1D95F4
:100A700021891B720C770933A2494BC2246E05737E
:100A80000D7709730625D5075D4D0605740C97098A
:100A9000B3E270D8E26ED9027510770933C2244CE4
:100AA000C2244CC2248C8624760E7709335235C971
:100AB000A2AC12266906770E7709335253244552A9
:100AC000A4744B00780D770933D224ABA495AC9273
:100AD00006790DA6D93242DF9425159321017A0AB1
:100AE0007709330E69AFC3107B0DC5FBB296B01A00
:100AF000696A1656077C06C1FC323E7D0EC5F93286
:100B0000D6B0966A521A5626007E0A37797334296F
:100B1000D21400000000080464063FFFFF04001127
:100B2000C709B3F23A340C723C48717918020401D7
:100B300012B70973B228CB916190E3418ACBC310FD
:100B4000040213C7E9326E7179C84A599445599421
:100B5000C5A10204030CC70973DBB16190FB0C044F
:100B600004119709B3862894E3218BF3301A1200FD
:100B700004050FA709730625B5EF563519140004AF
:100B8000060BA50A330629ECA74104070DB50A3365
:100B9000322D1DA4B0A74104080EA709F38634EE38
:100BA0004B180D1100040916A8083306310AA330AA
:100BB0000AA3258BB4488BB4485B00040A13A80829
:100BC00033B27E1B86248BB4488BB4485B00040B85
:100BD00011A709336E7179C84A599445599405048F
:100BE0000C12C60933DBA1504BA2684BB2A8968405
:100BF00001040D11B70973F25A2A6E891429D9A874
:100C0000AA01040E12B70973B26C87524765486295
:100C100035191400040F0DC7E93252FF3A0C5A9CE3
:100C20000104100EA709F3D224ABA4D6E16A0D0487
:100C3000110FA709332E71795852D7614800041259
:100C400013A7093306294C523119A430498DC92004
:100C50000104130AA709330E727F06041416B7F9AC
:100C6000B2862CCAA22CCAA25A9445599425C3A074
:100C70000604150EA709330E727990E2E6610804A6
:100C80001614A70933A248AA3425B52D29254D915C
:100C9000144905041710A7097306258D6B7B1CAB3F
:100CA000C9A00004180FA7093352E3964891928D0A
:100CB000AA35041912B70973B26C8752714BA44854
:100CC000C946550D041A12A709335231C9A2DA9840
:100CD0008451560A9334041B14A7097386254CC209
:100CE000244CC2244CC2244C4235041C11A70933A5
:100CF00052755B2A4A458AA448B506041D0BA7090C
:100D00003352D7E1EA35041E0DA709730625F5D73E
:100D1000645000041F0AA709330EAA7F0D04200E99
:100D2000A709332EA9751892B8330004210EA7091C
:100D300073062595FB9A0C0A0004220BA709330EB3
:100D400059DCDF0004230FA70933521F952189D5F1
:100D5000645000042415A709F3C241892229922274
:100D6000299222A932881900042511A70933523586
:100D7000C92A699C2659255503042617C7E932C29A
:100D8000244CC2244CC2244CC2244CC26418E2023B
:100D900004270BA7093352AFC93077042816A709D7
:100DA00033A2488AA4488AA4488AA4488AA4681816
:100DB00004042917C7E932A2488AA4488AA4488AA9
:100DC000A4488AA46818E402042A11A70933E6E6B5
:100DD000212B65511665D19000042B12A7093352BF
:100DE000D741D2122DD1122D19A400042C0EA7091F
:100DF00033E2E661495D872101042D11970973866D
:100E000028CCE36C8863311A2200042E15A709331D
:100E1000A2A5A6644A36644AA6644AA664D202041D
:100E20002F11A709738621B526C316D592505503F5
:100E300004300F770973063D4E862115952109046C
:100E40003111A709B393418993211155D7645000FB
:100E500004320F7709332EA93A0C49AA0E43020433
:100E6000330A7709330E72CF0004341287F9B28641
:100E70002CCAA22CAA4559320C6A0004350E7709F7
:100E80007306255587733E280004360F770933A271
:100E900048AAB46D4953241504370E770973062503
:100EA0008DB35D4D060504380E77093352714BA49E
:100EB00048C94635043911A70973B26C8752714B82
:100EC000A448C94635043A0F7709335231C9A221E3
:100ED0002B85491A043B107709B306298BB2288B5E
:100EE000B2281B03043C0D770933D26DA948916ADF
:100EF0000D043D0B77093352EB70B506043E0D77B8
:100F000009730625F59A0C0A00043F0A7709330E87
:100F1000AAAF01044010A7D93292211155EBA80CB9
:100F2000495C0604410D7709730625955B934101E1
:100F300004420B7709330E59DC1B0004430FA7D979
:100F400032521F952189D5645000044415D7D9F237
:100F5000E2E2A04491144991144995418C6B00043C
:100F6000450E770933D224ABA495AC920604461201
:100F700097E932C2244CC2244CC2244C86212E0450
:100F8000470B770933526B32CC0D04481177093384
:100F9000A2488AA4488AA4488A864104491297E94B
:100FA00032A2488AA4488AA4488A86412E044A0E5E
:100FB000770933E6F29095B2684800044B0F770941
:100FC0003352EB206989960C5200044C0E7709339A
:100FD000E2F2B0A4EA302400044D0F77097306252D
:100FE0008DB32156934101044E11770933A2A5A672
:100FF0006443A6644A262D00044F0F7709738621A7
:10100000559361CA92500D045010B70973F23A38E3
:1010100028A93A9CF34101045112A70973B228CBC5
:10102000A14149D5E19C0F0A00045216C7E972D2CA
:10103000418B93494BC2244CC2244CC2385B000400
:10104000530CB70973DBB161907B0604540F770929
:1010500073062595872C4E93410104550E7709732D
:101060000625D5075D4D060504560A950A73F4B1A9
:10107000A74104570DA50A33A2248AC79E0601047E
:10108000580EC6D9327568ED2A1A932101045911F8
:1010900078087386300AA3309A5AA2485B00045A33
:1010A00011770933A22CCAA26C58A2488AA405045D
:1010B0005B14A70973D2418B93494BC2244CC224C1
:1010C0004CC200045C10A70973DB5231C9A2212B6A
:1010D00085491A045D10A70973F25A2A6E891429EA
:1010E000D9A806045E12D7D972B26C87521F952117
:1010F00089D5645000045F0D97E932525F87418BB8
:101100003300046013A709732CA929922229922283
:1011100029922A160004610E7709732CA9299222BC
:10112000A96201046213A709B3C2418CE3212B65B4
:10113000511665D19000046311A709B3E2E220C6FD
:10114000F19095B2684800046415A70933A2A5A6DA
:1011500084493848499884499864D20204651177D3
:101160000933A2A5A68483948449262D000466141D
:10117000A709F3D2244CC2242B0D52D2144991B2A8
:10118000040467107709F3D2244CB2D220252D4BEA
:1011900000046814A70933B2A8524A4A49DB70A96F
:1011A0002815A5A23404690F770933B2A8524ADA88
:1011B000864B4569046A14A709330E4956099334CE
:1011C0001C9428922229920A046B107709330E4945
:1011D0005649C3418922A900046C16A709339261BC
:1011E000C9A4A4942483142D2D4A45A9280D046D67
:1011F000117709339261C9A42419A46869511A04AA
:101200006E15F7D972B24A9A838392C6B53D4E06DF
:1012100025CE0705046F15E7D972B24A9A838392E7
:10122000C6D91E278312E78302047013A70933A2CD
:10123000488AA4488AA448AA0C625C03047113A7D4
:10124000D932A2488AA4488AA448AA0C625C030442
:10125000720FA709730625B50E57D76450000473A3
:101260000F77097306255587AB9A0C0A000474148E
:10127000A70933523109A35A944561122661926637
:101280000004750F7709335231AA456112266906A9
:10129000047615B70973A230CA91548CB2A816858A
:1012A0004998A41900047713A70973A230CA91546E
:1012B0008C6A519884499A01047818D7D972D2243B
:1012C0004CC2A4A254948A52512A4A37394CD204AF
:1012D000047915A7D972A244A92815A5A254946E21
:1012E0007298A40900047A10C7F9F2C2418922D584
:1012F0004F9541CC00047B1097F9F2C2418922D569
:10130000A932881900047C15C70973A341CA614535
:10131000494D9114499154191400047D13B7097370
:10132000A341CA6145494D911449954101047E1577
:10133000B709730629A9438A929A22299222A932CF
:101340002800047F13A709730629A9438A929A22C9
:1013500029922A830204800EC7E972062595FBAE06
:10136000C7190004810D97E972062595DBF538034E
:1013700004820EA71973E36CDEE26CDEE2140483D0
:1013800009359A3387210404840827A973B66C04AD
:10139000850B379973866852520004860B3799B3D0
:1013A00086445A1300048811F7D972D2244A939CB8
:1013B0007F4993284D0204890FF6D972C2704A758D
:1013C000BE84E1940A048A1AE8E972B27007D32451
:1013D0004D42254B4A955A22266992E6489C0004C4
:1013E0008B17C8E972B27007D32454B2A454A9254C
:1013F0006292E6489C00048C14A80873E241CCF386
:10140000614A9334499334191600048D1078087397
:10141000E241CC87294DD2645800048E0FA70933CE
:101420002EA92D198624959B01048F13A7D93292DA
:10143000211155533425CA9084491C0304900AB7DE
:1014400009B387737F0604910A8709B38773CF00B6
:1014500004920EA7097386254CE2748DBB02049397
:101460000D77097386254CD235AE02049414C7E972
:10147000326E7179C84A5994455994C5D190000487
:10148000951197E9326E713C64A52CCAE268480058
:10149000049616C7E932A248AA3425B52D29254D50
:1014A00049292925720104971197E932A248AAB463
:1014B0006D4953524AE402049812D7D97206258D19
:1014C0006B7B1CABC920E6A106049911A7D9720653
:1014D000258DB35D4D06310F3500049A13C7E932EF
:1014E0005231C9A2DA988451560A93502E049B10A7
:1014F00097E9325231C9A2212B85492817049C1241
:10150000A70933524B94340D59524AA224B506040C
:101510009D107709335231691AB2A4142669000468
:101520009E13A80873D241AA95C23549A3302B4611
:101530006900049F11A70973E274082B59541BA377
:10154000AC140604A013A70933B6288B6A5136469B
:10155000599495B2280B04A10F770933B6A8968445
:101560006A1246590104A216C7E932C2244CC224A9
:101570004C86254CC2244CC224940B04A31297E938
:1015800032C2244CC26458C2244C42B90004A4168E
:10159000A70933B2218BB2288B06298BB2288BB2D4
:1015A000288B0004A511770933B2218BB26890B261
:1015B000288BB20804A618C7E932862CCAA22CCA06
:1015C000A2258AA4488AA4482A670B0004A7139777
:1015D000E932862CCAA22C5AA2488AA472B6000408
:1015E000A815C7E97286212E2D352553322553B211
:1015F00064D0F22104A91297E97286218E969A92FC
:1016000029593268F91004AA0FC7E972062595FB1B
:101610009A0C5A2E0104AB0F97E9720625955B933D
:1016200041CB250004AC0CC7E9320E59DCCF72095E
:1016300004AD0C97E9320E59DC592E0104AE0DA70A
:101640000933D224ABA471DF0004AF0DA7D932D285
:1016500024ABA471DF0004B010A70933D224ABA4DB
:10166000717110E31A0004B110A7D932D224ABA4CF
:10167000717110E31A0004B213C7E9325235C92A56
:10168000699C2659254C42B90004B30F97E932D220
:1016900024ABA495AC12CA0504B417C7E9320625D9
:1016A000CAA22CCAA22CCAA22CCAA22C1AE40204D6
:1016B000B51297E9320625CAA22CCAA22CCAA241A9
:1016C0002E04B612C7E932C2244CC2244CC2689020
:1016D0009BE50204B70F97E932C2244CC26890CB55
:1016E000720104B810A7093352A748AA0C5B9445AD
:1016F000710104B90F7709335229922AC316655133
:101700001C04BA0DA70933E296211155AF0104BBA1
:101710000BA50A33C22E26CD2D04BC11A709F3B6A2
:101720004CC9942C19A6B82D5B0004BD0F7709F3A2
:10173000969A9225C31467D90204BE12C7E9F2B67D
:101740004CC9942C19A6B82D1B730504BF1197E939
:10175000F2969A9225C31467D9982B0004C00AA365
:101760000B3396A85F0604C113B70973B26C874A9E
:1017700052A56D4B4A4953241504C212A70973B2EE
:101780006C874A52A56D4B9A22A90004C315C7E97C
:10179000325231C9A2DA988451560A93340E150098
:1017A00004C41297E9325231C9A2212B85491A8704
:1017B0000A0004C518C8E97286298CC2288CC22880
:1017C0008CC2288CC224CD91380104C60E98E9B28F
:1017D00006ADFF22E6489C0004C70EC7E93252D787
:1017E000E1EA350E150004C80D97E93252EB70B5E9
:1017F000C6A10204C919C8E932D2244DD2244D86AB
:10180000214993344993344973244E0004CA1498EF
:10181000E932D2244DD26418923449933447E20419
:1018200004CB0EC7E93252AFC930B7AA710204CC5B
:101830000E97E932526B32CC55354E0004CD16C8A6
:10184000E932D2244D34A57FAA44953449933447D4
:10185000E20404CE1398E932D244537AAAA4499AF6
:10186000A43912270004D010B70973B26C07B74A25
:10187000AA0E576B0004D112A70973B26CC7063DBC
:101880004E86211595210904D210B70973B228CBD1
:10189000B1AD92AAC3D51A04D313A70973B228CB4A
:1018A000A1418F9361484565480204D416A7097386
:1018B0009421CAA22CCAA26C58A22CCAA22C1A0229
:1018C00004D5107709732C512D4A0625CAA28A32F5
:1018D00004D612B70973B26C87862189E3218BABDA
:1018E000C31004D711A70973B26CC70625558773B7
:1018F0003E280004D80FA70973063D2E0F576B3200
:10190000280004D90E770973063D1EAE6A322800FE
:1019100004DA12B70973B228CBA1418F87AB35190E
:10192000140004DB12A70973B228CBA1418F87AB47
:101930009A0C0A0004DC15B70973B228CB912892DF
:101940002A6D5B524A9A22A90004DD13A70973B2DB
:1019500028CB9128922A6D5BD214490504DE12B778
:101960000973B228CBA14149E3DAAE26830204DF32
:1019700012A70973B228CBA14149E36C57934101E7
:1019800004E00F9709330E715ADD63351914000412
:10199000E10F97E9320E69EB90C76A32280004E242
:1019A00012B70973061D498D5B22454A36AA6A00A3
:1019B00004E311970973061D49C52D9122251BD5F6
:1019C0000004E413B70973B228CB9154DC122952F6
:1019D000B251550304E512A70973B228CB9154DC28
:1019E000122952B2510D04E610B70973B228CBA1E7
:1019F00041497D4D060504E710A70973B228CBA124
:101A00004149BD26830204E812A709730625B5647F
:101A10004BB225AA3519140004E91177097306257C
:101A200055B225D9123519140004EA15B70973B255
:101A300028CBA14149956C49B6445593410104EB2B
:101A400014A70973B228CBA14149956C49B6444DFE
:101A5000060504EC14C709B39230C9B1210AF33862
:101A60001BE2588C860804ED13A709B39230C9B164
:101A70004149E36C88D564500004EE11B709730640
:101A80001D493D2A4312ABC9A00004EF11C7D9720A
:101A9000061D497D5486245693410104F012B7096E
:101AA00073B228CB91D4511992584D060504F11305
:101AB000D7D972B228CB91D4476548623519140042
:101AC00004F211B709B3BA43A9A33224B19A0C0A9C
:101AD0000004F311D7D9B2BA43A98FCA90C46A32AD
:101AE000280004F40FB70973B228CB91D43519E656
:101AF0000604F50FA70973B228CB91D49A0C73038F
:101B000004F814B70973B228CB91D43A485AA225E5
:101B10005A32480104F912A70973B228CB91D43A7A
:101B2000485AA225831405000EA808F35B8641F6E7
:101B30009C0C430005010EA709B35B86445C1D9510
:101B40002109050214A80873F3DA208551988889C1
:101B5000988849322C00050314A70933E39A1245EB
:101B60005216658996484A222500050411A7097373
:101B7000B672514FC2244CC2244D0005050E7709A0
:101B800073B672A8276192260005060DC6E972A6F3
:101B90002CADC969AB5A05070D96E972A62CCDE4A8
:101BA00034550B050816A70973862CCAA22CCAA2A5
:101BB0002C4A4A49292925620205091277097386A8
:101BC0002CCAA22CCAA2A494880900050A16A70947
:101BD00033B2288BB2288B06294BB4444BB4444C07
:101BE00000050B11770933B2288BB26890B2444BD1
:101BF000C404050C10A70973062595DB86D49A0C3E
:101C00000A00050D0F770973062595B321559341F9
:101C100001050E10A709330E59DC254CC2244CD205
:101C200008050F0D7709330E59DC122669040000F0
:101C3000682A11241FBECFEFD8E0DEBFCDBF84B726
:101C40008093690514BE0FB6F894A8958091600042
:101C5000886180936000109260000FBE11E0A0E0E8
:101C6000B1E0ECE2F2E702C005900D92A43DB107AD
:101C7000D9F725E0A4EDB1E001C01D92A936B20765
:101C8000E1F71EE0C9E1DEE004C02197FE010E94F9
:101C90000739C831D107C9F70E94842B0C94143935
:101CA0000C940000662329F06A3019F0862F90E02A
:101CB00008958FEF9FEF0895AF92BF92CF92DF927A
:101CC000EF92FF920F93CF93DF93EC01DA0179014A
:101CD000942F9770E1E0F0E09F01092E01C0220FE0
:101CE0000A94EAF7522F6E018AE8C80ED11CF60159
:101CF000808140E0823018F4422F813049F15D014B
:101D0000F8EFAF22E8ADF9AD28813981D9015096BD
:101D10008C918A9D90018B9D300D1124620F731F51
:101D2000DF01A60FB71F01111AC0EA0EFB1E8C912E
:101D3000842B85278D93AE15BF05C9F7DF91CF9111
:101D40000F91FF90EF90DF90CF90BF90AF900895EC
:101D500050E0D5CF440F550FE114F10479F33C91D5
:101D6000342B35273C939F5F9770E1E0EE1AF10822
:101D70009111F0CF2CAD3DADA20FB31FF6018081C4
:101D8000823028F4813009F051E041E0E5CF51E0A4
:101D9000E3CF80E0089590E080E008959B01DC01AE
:101DA0001896ED91FC9141E067E10994833081F050
:101DB00028F4813099F08230A9F008958730A9F095
:101DC0008830C9F08430B1F4809180008F7D03C0E9
:101DD000809180008F7780938000089584B58F77FD
:101DE00084BD089584B58F7DFBCF8091B0008F773F
:101DF0008093B00008958091B0008F7DF9CF1F933C
:101E0000CF93DF93282F30E0F901E45CF94F849100
:101E1000F901E85DF94FD491F901EC5EF94FC491F5
:101E2000CC23A9F0162F81110E94D60EEC2FF0E0E2
:101E3000EE0FFF1FE65FF94FA591B4918FB7F894AD
:101E4000EC91111108C0D095DE23DC938FBFDF9198
:101E5000CF911F910895DE2BF8CFCF93DF9390E0C1
:101E6000FC01E85DF94F24918C5E994FFC0184914F
:101E70008823D1F090E0880F991FFC01E050FA4FC1
:101E8000A591B491FC01E65FF94FC591D491623000
:101E900071F49FB7F8943C91822F809583238C93A3
:101EA000E8812E2B28839FBFDF91CF9108958FB7B4
:101EB000F894EC912E2B2C938FBFF6CF3FB7F8946C
:101EC00080917E0390917F03A0918003B091810364
:101ED00026B5A89B05C02F3F19F00196A11DB11D85
:101EE0003FBFBA2FA92F982F8827BC01CD01620FC1
:101EF000711D811D911D42E0660F771F881F991F7C
:101F00004A95D1F708958F929F92AF92BF92CF9248
:101F1000DF92EF92FF926B017C010E945E0F4B01FA
:101F20005C01C114D104E104F104B9F00E945E0F18
:101F3000681979098A099B09683E734081059105F2
:101F400080F321E0C21AD108E108F10888EE880E7A
:101F500083E0981EA11CB11CE4CFFF90EF90DF90AE
:101F6000CF90BF90AF909F908F9008952FB7F89427
:101F700060917A0370917B0380917C0390917D0343
:101F80002FBF089508950895AF92BF92CF92DF9228
:101F9000EF92FF920F931F93CF93DF936C017B011E
:101FA0008B01040F151FEB015E01AE18BF08C017AF
:101FB000D10759F06991D601ED91FC910190F08122
:101FC000E02DC6010995892B79F7C501DF91CF91E5
:101FD0001F910F91FF90EF90DF90CF90BF90AF9047
:101FE0000895FC01538D448D252F30E0842F90E01F
:101FF000821B930B541710F0CF9608950197089504
:10200000FC01918D828D981761F0A28DAE0FBF2FCC
:10201000B11D5D968C91928D9F5F9F73928F90E022
:1020200008958FEF9FEF0895FC01918D828D981791
:1020300031F0828DE80FF11D858D90E008958FEFCE
:102040009FEF0895FC01918D228D892F90E0805C97
:102050009F4F821B91098F739927089582E893E01F
:102060000E94221021E0892B09F420E0822F08959C
:1020700080E090E0892B29F00E942E1081110C94B1
:1020800000000895FC01A48DA80FB92FB11DA35A1B
:10209000BF4F2C91848D90E001968F739927848F88
:1020A000A689B7892C93A089B1898C9183708064AB
:1020B0008C93938D848D981306C00288F389E02D4C
:1020C00080818F7D80830895EF92FF920F931F93FD
:1020D000CF93DF93EC0181E0888F9B8D8C8D9813DB
:1020E0001AC0E889F989808185FF15C09FB7F894E7
:1020F000EE89FF896083E889F98980818370806433
:1021000080839FBF81E090E0DF91CF911F910F917D
:10211000FF90EF900895F62E0B8D10E00F5F1F4F8C
:102120000F731127E02E8C8D8E110CC00FB607FC9B
:10213000FACFE889F989808185FFF5CFCE010E9429
:102140004210F1CFEB8DEC0FFD2FF11DE35AFF4F45
:10215000F0829FB7F8940B8FEA89FB8980818062B7
:10216000CFCF0F931F93CF93DF938C01D0E0C0E0CC
:10217000F801EC0FFD1F6491662341F082E893E0C3
:102180000E946410892B11F02196F2CFCE01DF91CD
:10219000CF911F910F910895CF93DF93EC01888D1C
:1021A0008823B9F0AA89BB89E889F9898C9185FDD2
:1021B00003C0808186FD0DC00FB607FCF7CF8C9160
:1021C00085FFF2CF808185FFEDCFCE010E944210C6
:1021D000E9CFDF91CF910895DC011A96ED91FC9142
:1021E00030E020E00994DC011696ED91FC9130E09E
:1021F00020E040E069E10994DC011696ED91FC9144
:1022000030E020E040E068E109949A01DC01169694
:10221000ED91FC91462F67E10994EF92FF920F93A5
:102220001F93CF93DF931F92CDB7DEB77C018B0155
:10223000D8016C91673129F150F46531A0F40F9009
:10224000DF91CF911F910F91FF90EF9008956A3128
:1022500018F16E3FA1F7F8014181498369E2C70196
:102260000E94EC100BC0F80141814983D7011696FA
:10227000ED91FC9130E020E0C70109950E5F1F4F02
:10228000D7CFF80181818983AE014F5F5F4F61E055
:10229000C7010E940511F2CF0F5F1F4FD70116969D
:1022A000ED91FC9130E020E040E0C7010995C0CFFE
:1022B000462FDC011696ED91FC9130E020E066E1BE
:1022C0000994462FDC011696ED91FC9130E020E058
:1022D00065E10994EF92FF920F931F93CF93DF93E1
:1022E000EC01042F79016D3009F446C050F46B30D5
:1022F000C9F1693009F49FC06A3009F465C080E013
:102300005CC06E3009F44BC06F3099F70E94FC102E
:10231000F7011381110F110F110F6C89160F60E473
:10232000CE010E946111612F62956F706061CE01D4
:102330000E946111612F6F70CE010E945811F70148
:102340006481606BCE010E945811F7014081518178
:102350006281660F660F660FCE010E940511015063
:10236000A1F727C06DE371E0442311F068E371E049
:10237000CE010E940D1120C0411109C061E371E03E
:102380000E940D11E881F98182898C8B15C06AE267
:1023900071E00E940D11E881F9818389F6CF0E94D6
:1023A000FC1061E8CE010E946111602FCE010E94F5
:1023B0005811CE010E94F31081E0DF91CF911F915F
:1023C0000F91FF90EF900895EA85FB8530E020E0C3
:1023D00040E068E2CE010995EE81FF8130E020E027
:1023E00040E064E1CE01099541E06BE4CE010E943A
:1023F000EC10E881F981448169E2CE010E94EC1081
:1024000040E06BE4CE010E94EC10E881F981448148
:1024100069E2CE010E94EC1041E06BE4CE010E9423
:10242000EC10E881F981458169E2CE010E94EC104F
:1024300062E471E09DCF87E791E09983888382E031
:10244000A4CFCF93DF931F92CDB7DEB76983BE01D0
:102450006F5F7F4F0E94CE0E0F90DF91CF91089556
:10246000462FDC011896ED91FC9130E020E060E20F
:102470000994EF92FF920F931F93CF93DF938C01F8
:10248000C62FD42F7901673130F46531B8F4643147
:1024900031F080E01BC0673101F16A31D0F7D8011B
:1024A0001896ED91FC9197014D2F6C2FC801DF918B
:1024B000CF911F910F91FF90EF90099460E00E94DF
:1024C00030126D2FC8010E94211281E0DF91CF915F
:1024D0001F910F91FF90EF90089561E00E943012DC
:1024E000DECFFC016623D9F16A30C9F1808D8111FC
:1024F00025C06C3F48F085E0808F617070E0738B81
:10250000628B2EEF3FEF29C0683F20F084E0808F80
:102510006370F4CF603F20F083E0808F6770EECF70
:10252000603E20F082E0808F6F70E8CF262F30E091
:10253000603C98F081E0808F6F71E0CF8150808F98
:102540002289338996E0220F331F9A95E1F76F7342
:10255000262B338B228B8111D4CFC90108952FEF05
:102560003FEFFBCF0F93FC01E05CFF4F0190F08148
:10257000E02D4E1B5F0BDC01D496ED91FC9109958B
:102580000F910895CF93DF93FC01A081B18182ADBB
:1025900090E09C0143E0220F331F4A95E1F737AFEB
:1025A00026AF50962C91509748E0249F900111241B
:1025B00035AF24AF23AD30E0B90153E0660F771F8C
:1025C0005A95E1F7EF01C05CDF4F7983688351963C
:1025D0004C915197E901C80FD91F50E04C175D0786
:1025E00018F4CA01821B930BEF01CE5BDF4F798396
:1025F0006883229623E0880F991F2A95E1F7860FBA
:10260000971F99838883229654968D919C91559714
:1026100099838883E85BFF4F56968D919C919183B7
:102620008083DF91CF9108950F931F93FC01E25BAC
:10263000FF4F0190F081E02DDC01A05BBF4F0D90BA
:10264000BC91A02D4A175B0740F4E017F10748F052
:102650000417150730F080E019C0E017F107C0F348
:10266000FACFFC01E65BFF4F40815181845B9F4FB5
:10267000FC01808191816817790758F481E0421745
:10268000530720F081E02617370728F71F910F9195
:10269000089542175307B0F3DECF2F923F924F9227
:1026A0005F926F927F928F929F92AF92BF92CF92E2
:1026B000DF92EF92FF920F931F93CF93DF93CDB7EB
:1026C000DEB72A970FB6F894DEBF0FBECDBF9A874C
:1026D0008987865B9F4F9A838983FC0111821082D0
:1026E000E985FA85EA5BFF4F4080518029853A856C
:1026F000245B3F4F3C832B83F90151824082E98563
:10270000FA85EE5BFF4F2080318029853A85225B78
:102710003F4F3E832D83F90131822082E985FA857E
:10272000EC5BFF4F6080718029853A85205B3F4FCD
:1027300038872F83F90171826082E985FA85E85A2A
:10274000FF4FE080F180E985FA85EC5AFF4FA080C9
:10275000B180E985FA85EA5AFF4FC080D180E985CA
:10276000FA85EE5AFF4F8080918087019501A6017E
:10277000B40189859A850E94141329853A852C57BE
:102780003F4F3A87298781111BC0F90110822A9691
:102790000FB6F894DEBF0FBECDBFDF91CF911F9172
:1027A0000F91FF90EF90DF90CF90BF90AF909F90F0
:1027B0008F907F906F905F904F903F902F900895F3
:1027C00081E0E985FA8580838114910421F0E98113
:1027D000FA8191828082A414B50420F4EB81FC81FB
:1027E000B182A0822C143D0420F4ED81FE81D182BF
:1027F000C082E614F70458F6EF81F885F182E08292
:10280000C6CF0F93CF93DF93E02FDC01AC57BF4FC0
:10281000FC91FF2309F460C02115310509F45CC067
:102820002230310538F0023009F04AC06F5F7F4F27
:10283000621B730B0E2F0170E0FD52C0FC01E25BC6
:10284000FF4F0190F081E02D4E175F0708F444C060
:10285000FC01E05BFF4F0190F081E02D4E175F0718
:10286000D8F5FC01E45BFF4F0190F081E02DDC0125
:10287000A65BBF4F0D90BC91A02D260F371F2617CA
:10288000370738F56E177F0718F59F01215031097A
:10289000A217B30708F56A177B0708F4BD012E17C6
:1028A0003F0708F4F901E61BF70BEC01AEA9BFA93D
:1028B00014960D90BC91A02D9F01FD0109950CC0AF
:1028C000033009F0B7CF4F5F5F4F421B530BB2CFBE
:1028D000BD016E177F07E0F2DF91CF910F91089550
:1028E000FC01E65BFF4F0190F081E02D6E177F0742
:1028F00098F3FC01E45BFF4F0190F081E02D6E172F
:102900007F0750F7FC01E05BFF4F0190F081E02D65
:10291000DC01A25BBF4F0D90BC91A02D240F351F91
:1029200024173507A8F44E175F0788F49F0121503C
:102930003109A217B30780F64A175B0708F4AD0107
:102940002E173F0708F4F901E41BF50BAECFAD01DC
:102950004E175F0708F6EDCF0F93209125053091B4
:10296000260562177307F0F020912705309128059E
:1029700062177307B8F42091210530912205821760
:10298000930780F020912305309124058217930747
:1029900048F4AB01BC0100E021E030E087ED94E0B9
:1029A0000E9401140F9108952F923F924F925F92CF
:1029B0006F927F928F929F92AF92BF92CF92DF924F
:1029C000EF92FF920F931F93CF93DF937C018B01C4
:1029D0006A01E9014901861A970A3A01680E791ECF
:1029E000B401C3010E94AC145E01AE18BF082801F7
:1029F0004C0C5D1CB501C2010E94AC1416012E18CE
:102A00003F08B401C1010E94AC14C01AD10AB5013B
:102A1000C6010E94AC140C0F1D1FB801C3010E9417
:102A2000AC14CE0DDF1DBE01C2010E94AC14B80172
:102A3000C1010E94AC14BE01C601DF91CF911F916C
:102A40000F91FF90EF90DF90CF90BF90AF909F904D
:102A50008F907F906F905F904F903F902F900C944D
:102A6000AC142F923F924F925F926F927F928F920F
:102A70009F92AF92BF92CF92DF92EF92FF920F930D
:102A8000CF93DF9300D000D000D0CDB7DEB74C019C
:102A90003B015E834D8379015B018FEFA81AB80A71
:102AA0002901461A570ACA01880D991D9A838983FC
:102AB00001E09501A201BC0187ED94E00E940114A0
:102AC00064019FEFC91AD90A1701281839088D81A6
:102AD0009E81860D971D9C838B839601A101BC016D
:102AE00087ED94E00E9401148D819E8188199909D7
:102AF0004C019501A201BC0187ED94E00E940114F4
:102B00008D819E81861997099E838D839601A101EF
:102B1000BC0187ED94E00E9401149501A701698131
:102B20007A8187ED94E00E9401149601A7016B81E0
:102B30007C8187ED94E00E9401149501A701B40106
:102B400087ED94E00E9401149601A7016D817E81BA
:102B500087ED94E00E94011426960FB6F894DEBF2C
:102B60000FBECDBFDF91CF910F91FF90EF90DF901F
:102B7000CF90BF90AF909F908F907F906F905F901D
:102B80004F903F902F9008952F923F924F925F92D7
:102B90006F927F928F929F92AF92BF92CF92DF926D
:102BA000EF92FF920F931F93CF93DF93CDB7DEB7D2
:102BB00068970FB6F894DEBF0FBECDBF98E0E1E096
:102BC000F1E0DE01199601900D929A95E1F798E0F7
:102BD000E9E0F1E0DE01119601900D929A95E1F79E
:102BE000262F30E03E8B2D8B190138E0230E311C4F
:102BF000FE013196FC8BEB8B9E01275F3F4F3A8B9A
:102C0000298BE82FF0E0F88FEF8B822D8770EB890E
:102C1000FC899191FC8BEB8B6F88788C690E711C11
:102C200097FD7A94E989FA89C190FA8BE98B0C2C8B
:102C3000000CDD08FFE6CF0ED11C882309F46FC01D
:102C4000833008F06EC082E0E82EF12C83010F5F24
:102C50001F4F0E0D1F1D96012F5F3F4F2E0D3F1D65
:102C6000A3014E195F09B6016E197F0987ED94E043
:102C70000E941413882389F144244394512C4E1844
:102C80005F0810E000E00E191F09000F111F9301EB
:102C9000A601B70190E080E00E943115882483945A
:102CA000912CB12CA12C57FC07C021E0E21AF108AD
:102CB0000E5F1F4F400E511E3FEFA31AB30A82E072
:102CC000880E911C480C591C9301A601B701C5013F
:102CD0000E943115AE14BF0430F391E0291A310877
:102CE000ED89FE89E215F30509F08FCF68960FB6DE
:102CF000F894DEBF0FBECDBFDF91CF911F910F9132
:102D0000FF90EF90DF90CF90BF90AF909F908F900B
:102D10007F906F905F904F903F902F90089583E049
:102D200093CF83010E5F1F4F96012E5F3F4FA3018C
:102D300041505109B6016150710987ED94E00E943C
:102D40001413882351F29301A60161E070E090E032
:102D500080E00E94D4149301A60170E060E081E05D
:102D600090E00E94D414B9CFAF92BF92CF92DF927D
:102D7000EF92FF920F931F93CF93DF936C01EB01C0
:102D80005A017B01E20EF31E9C01240F351F8701BF
:102D9000AB01BC0187ED94E00E941413882361F01D
:102DA00000E09501AE01B60187ED94E00E940114A8
:102DB0002196EC16FD06A1F7DF91CF911F910F919F
:102DC000FF90EF90DF90CF90BF90AF9008952130AB
:102DD00069F038F0223079F0840F911D47FD9A9503
:102DE0000895860F911D67FD9A950895841B91099A
:102DF00047FD93950895861B910967FD9395089566
:102E0000213069F038F0223079F0861B910967FD96
:102E100093950895840F911D47FD9A950895860F07
:102E2000911D67FD9A950895841B910947FD93951F
:102E300008953F924F925F926F927F928F929F92EE
:102E4000AF92BF92CF92DF92EF92FF920F931F93B8
:102E5000CF93DF937C01162F442EEC01C25ADF4F33
:102E60005E806F806C018AE8C80ED11C788475186A
:102E7000312E711608F4372C8C809D800E85202F02
:102E8000462D652D8A819B810E94E7165C01202FCB
:102E9000462D652DC4010E940017AC01442079F035
:102EA0008C85F6018083232D30E0B501C7010E9497
:102EB0000114171548F017196394512CD7CF8B853F
:102EC0008111F7CF8D85EDCF150D1E836F82DF91B8
:102ED000CF911F910F91FF90EF90DF90CF90BF9017
:102EE000AF909F908F907F906F905F904F903F90AA
:102EF0000895DC011A964C911A97ED91FC91119767
:102F0000249130E0042E02C0359527950A94E2F70B
:102F1000842F860F883068F031961196FC93EE93DB
:102F2000E49198E0941B01C0EE0F9A95EAF72E2BDE
:102F300088501A968C938FEF9FEF01C0880F6A9587
:102F4000EAF78095822308950F931F93CF93DF9321
:102F50008C01EC01C25ADF4F798368831A86FC0129
:102F6000EF58FF4F6081CE010E9479178887F801E2
:102F7000EE58FF4F6081CE010E9479178987F801D2
:102F8000E657FF4F90819C8781E0911180E08D870B
:102F9000DF91CF911F910F910895CF93C62F0E947B
:102FA0007917C15021E030E001C0220FCA95EAF73D
:102FB000821BCF910895FC01E60FF11D849190E0F2
:102FC000982F88273196E4918E0F911D0895809156
:102FD0003105909132058055964009F4AEC0E0E588
:102FE000F6E0F0933205E0933105E491E093440577
:102FF000E1E5F6E0E491E0934505E2E5F6E0E491F1
:10300000E0934605E3E5F6E0E491E0934705E4E567
:10301000F6E0E491E0934805E5E5F6E0E491E0931D
:103020004905E6E5F6E0E491E0934A05E7E5F6E0D8
:10303000E491E0934B05E8E5F6E0E491E0934C057C
:10304000E9E5F6E0E491E0934D05EAE5F6E0E49188
:10305000E0934E05EBE5F6E0E491E0934F05ECE5F7
:10306000F6E0E491E0935005EDE5F6E0E491E093BD
:103070005105EEE5F6E0E491E0935205EFE5F6E068
:10308000E491E0935305E0E6F6E0E491E093540523
:1030900061E180E596E00E94DB17909356058093EE
:1030A000550563E180E596E00E94DB179093580593
:1030B0008093570565E180E596E00E94DB179093C9
:1030C0005A05809359058091310590913205892BDD
:1030D000A1F18091510580935D0540915205409387
:1030E0005E0590915C05992341F1913069F49091CE
:1030F0005305891714F490935D0580915405841746
:10310000E4F480935E05089530914E0520915005BA
:10311000082E000C990B622F022E000C770B630F08
:10312000711D37FD7A95861797071CF4320F30937F
:103130005D05241714F420935E050895EF92FF9225
:103140000F931F93CF93DF93FC01E65AFF4F20812B
:103150003181295E3F4F6F3F710509F048F56136B7
:103160007105D8F080589F4FFC0180819181280F14
:10317000391FC9010196FC014491442309F447C059
:10318000F90144914617170671F40196DF91CF912A
:103190001F910F91FF90EF9008956134710548F3EE
:1031A00082589F4FE1CFFC018491280F311DE1CF60
:1031B0008B01FC01EE57FF4FC081D181C20FD31F9D
:1031C0007E0160E0C7010E94DB17C80FD91F62E0D3
:1031D000C7010E94DB17F4E0EF0EF11C8017910786
:1031E00080F3FE01849190E0982F88273196E49136
:1031F0008E2B009761F00817190719F4CE0103967A
:10320000C5CFFE013296E491CE0FD11DEACF90E0FA
:1032100080E0BCCFCF92DF92FF920F931F93CF93AA
:10322000DF9310923D051092EF046C0180ECF82EB4
:1032300010E000E0D0E0C0E0F60161916F01E091A4
:10324000D904F091DA0487ED94E009958F3F98074F
:1032500089F18E3F2FEF920779F3BC0187ED94E05F
:103260000E949E18009721F1BC0187ED94E00E9416
:10327000A41760914A0585E395E00E94CD178093DD
:103280005F0560914B0585E395E00E94CD17609145
:103290004C0585E395E00E94CD17082F880F110B90
:1032A00080ECF81202C0F0905F05C00FD11FC4CFB0
:1032B00080E0F3CF20913D05222399F080915F05B6
:1032C000022E000C330B280F311D87FD3A95C20FDB
:1032D000D31FC01BD10B1F1424F4CF0DD11DF7FC3D
:1032E000DA95CE01DF91CF911F910F91FF90DF9082
:1032F000CF9008958F929F92AF92BF92CF92DF921C
:10330000EF92FF920F931F93CF93DF93EC017B011A
:103310008A016901FC01E459FF4F8081813009F481
:103320006FC008F462C0823009F475C0833009F4BC
:103330007DC0FE01E05AFF4FF182E0823296118398
:103340000083B601CE010E949E18009709F4FFC0C9
:103350007E012EE5E20EF11CBC01CE010E94A417F5
:10336000FE01E959FF4FB0803C966081C7010E9481
:10337000CD17882EFE01EC58FF4F6081C7010E94D7
:10338000CD17082FFE01EB58FF4F6081C7010E9447
:10339000CD17A82EF701908419140CF090C0168553
:1033A0000B0D0195212F402F682D828193810E9462
:1033B000E7166C01F70193838283212F402F682D3C
:1033C000848195810E940017AC01F7019583848365
:1033D000113009F484C0A8F1123009F491C01330FF
:1033E00009F4A4C08C01960136C0FE01E45AFF4FD7
:1033F0000190F081E02DCE010995080F191F99CF9A
:10340000FE01E45AFF4F0190F081E02DCE010995B5
:10341000E81AF90A8ECFFE01E45AFF4F0190F081BD
:10342000E02DCE010995081B190B83CFFE01E45A4C
:10343000FF4F0190F081E02DCE010995E80EF91EB5
:1034400078CF9601290D311D97FC3A958C010B0D13
:10345000111DB7FC1A95B601CE010E9414138823E2
:1034600071F1F701168217828E0101591F4F6E010B
:10347000F0E7CF0ED11CF8016081C7010E947917D7
:10348000882EF6016081C7010E947917982E40E0CE
:10349000682DCE010E94191741E0692DCE010E94CE
:1034A000191761E0C7010E9479178111F0CFF70168
:1034B00087818B1504F3C657DF4F848588838A2D57
:1034C000AA0C990BDF91CF911F910F91FF90EF9074
:1034D000DF90CF90BF90AF909F908F90089581E044
:1034E00090E08B199109B7FC939596012F5F3F4FA0
:1034F0008A01090D111D97FC1A95C80ED91EABCF74
:1035000081E090E0BC016919710997FC73959601FF
:103510002F5F3F4F8B199109B7FC93958A010F5F7D
:103520001F4F480F591FC60ED71E95CF96012B0D62
:10353000311DB7FC3A9581E090E08919910997FC1B
:1035400093958A010F5F1F4F480F591F84CF90E05A
:1035500080E0B8CFCF92DF92EF92FF920F931F934C
:10356000CF93DF93EC018B011092EF047A01D12C01
:10357000C12CF70161917F01E091D904F091DA0447
:1035800087ED94E009958F3F980719F18E3F2FEF53
:10359000920779F39C01A801BE0187ED94E00E9497
:1035A0007A1920914305213059F038F0223059F032
:1035B000233061F0C80ED91EDCCFC80FD91FFACF57
:1035C000080F191FF7CFC81BD90BF4CF081B190B15
:1035D000F1CFC601DF91CF911F910F91FF90EF9036
:1035E000DF90CF900895CF93DF93EC016BAFEEA9FE
:1035F000FFA90190F081E02D0995EEA9FFA90280B5
:10360000F381E02DCE01DF91CF910994AF92BF926B
:10361000CF92DF92EF92FF920F931F93CF93DF939E
:1036200000D000D01F92CDB7DEB78C01DC01DA9656
:10363000AC90DA97DB96EC90DB97ED91FC91B1883A
:10364000FE2CD12CC12CD801ED91FC9111978089D1
:10365000D8962D913C911C82FD828B83B8E08B9F84
:10366000C00111248C9DA0018D9D500D9C9D500D7D
:103670001124240F351F3A832983D8011496ED9124
:10368000FC919E012F5F3F4F41E06FE0C80109951B
:10369000F3948F2D8E198A1528F4BFEFCB1ADB0A0D
:1036A000FB1488F20F900F900F900F900F90DF9106
:1036B000CF911F910F91FF90EF90DF90CF90BF902F
:1036C000AF9008950F931F93CF93DF93EC01862F54
:1036D000642F8C32B8F48A32D8F5883239F18932C5
:1036E000E9F1803408F472C0982F9F73FE01E90F4E
:1036F000F11D868D8F3F61F1903108F045C00E9429
:10370000FF0E26C08D3281F160F394EB980F92305A
:1037100040F78F73C80FD11D8E8D411133C00E94A9
:10372000FF0E61E08E8D0E942D0F12C08E01025E91
:103730001F4FD0E0F80181918F018F3F31F061E0A0
:10374000D03108F062E00E942D0FDF5FD63191F793
:1037500081E0DF91CF911F910F91089570E090E08B
:1037600080E00E94830FF4CF85E090E0433010F0BA
:1037700082E090E0880F991F880F991F05970197A5
:10378000F1F7E6CF62E0CFCF282F30E0F901E45C1B
:10379000F94F8491F901E85DF94F0491F901EC5E6C
:1037A000F94F1491112379F081110E94D60EE12F67
:1037B000F0E0EE0FFF1FE45FFB4FA591B491EC9199
:1037C0000E2381E009F480E0898FC2CF80E0C1CF71
:1037D00020914202260F3327331F21323105ECF4AA
:1037E00020919202FC0190E080E0243069F082E0B8
:1037F0000895A09142022191AC014E5D5D4FA40F4E
:10380000B52FB11D2C930196861798F38091420233
:10381000680F6093420280E0089581E0089510925D
:10382000920281E08093910210926C0261E082E149
:103830000E94FF0E61E083E10E94FF0EE9EBF0E0E1
:1038400080818E7F808380818D7F808388E48093D8
:10385000B80085E48093BC000895CF93DF9391E096
:103860009093BC028823B9F0C091B800D091BA00FF
:103870008091BC008A7B8093BC0060E082E10E9462
:10388000FF0E60E083E10E94FF0E0E940F1CD093A8
:10389000BA00C093B800DF91CF9108950895E091E8
:1038A0006B0280916A02E81730F4F0E0EE5FFD4FA2
:1038B000808190E008958FEF9FEF089590916B02C3
:1038C00080916A022FEF3FEF981748F4E92FF0E05C
:1038D000EE5FFD4F208130E09F5F90936B02C90146
:1038E000089580916A0290916B02891B990B08954B
:1038F000CF92DF92EF92FF920F931F93CF93DF93BC
:103900007C01CB018A0120919302222389F0EB01F3
:103910006B01C40ED51ECC15DD0569F06991D70188
:10392000ED91FC910190F081E02DC7010995F3CF55
:10393000642F0E94E81BC801DF91CF911F910F9166
:10394000FF90EF90DF90CF900895CF93DF931F9279
:10395000CDB7DEB76983209193022223F9F020913D
:10396000B602203258F021E030E0FC01338322839C
:1039700090E080E00F90DF91CF91089580919402C4
:10398000E82FF0E0EB56FD4F998190838F5F809395
:1039900094028093B60281E090E0ECCF61E0CE012A
:1039A00001960E94E81BF7CF2091640384E0289FD2
:1039B000F0011124E953FD4F80819181A281B381EF
:1039C0000196A11DB11D80839183A283B383809151
:1039D0005403811112C0209354038091BF0280933D
:1039E000C3028091C0028093C4028091C10280937F
:1039F000C5028091C2028093C60208950F931F935F
:103A0000CF93C82F8B0181E792E19093DA048093E2
:103A1000D904CB010E940A199C016C2F70E090E040
:103A200080E02038310534F480E890E0821B930B6D
:103A30009595879521E732E13093DA042093D904F4
:103A4000A801CF911F910F910C94AA1A9B01AC0170
:103A5000E9EBF0E080818C7F808360E074E284EFAA
:103A600090E00E943F362F50310941095109569587
:103A70004795379527952093B8000895CF92DF9208
:103A8000EF92FF920F931F93CF93DF936C01EB01A3
:103A90007B01E40EF51E10E000E0CE15DF0561F0BD
:103AA0006991D601ED91FC910190F081E02DC60164
:103AB0000995080F191FF1CFC801DF91CF911F9110
:103AC0000F91FF90EF90DF90CF900895CF92DF920B
:103AD000EF92FF920F931F93CF93DF93EC016C0152
:103AE00024E0C20ED11CFC01E057FF4F0190F08191
:103AF000E02DC60109958E3FEFEF9E07D8F48E01A9
:103B00000C561F4FF801408151817E01F2E9EF0E02
:103B1000F11CF701608171819C01C6010E947A1934
:103B2000C059DF4F28812130C1F078F02230B9F040
:103B30002330E9F081E090E0DF91CF911F910F9168
:103B4000FF90EF90DF90CF900895F70120813181B1
:103B5000820F931F91838083EDCFF801F7CFF70198
:103B600020813181281B390B31832083E3CFF80179
:103B7000F7CF089590E080E008951F93CF93DF93EF
:103B8000CDB7DEB7E0970FB6F894DEBF0FBECDBF5E
:103B9000182F4FE250E0CE0101960E94FE3518AA80
:103BA00081E792E19093DA048093D904612F70E069
:103BB000AE014F5F5F4F90E080E00E94AA1AE0964E
:103BC0000FB6F894DEBF0FBECDBFDF91CF911F912E
:103BD00008951F93CF93DF93CDB7DEB7C054D109BB
:103BE0000FB6F894DEBF0FBECDBF182F4FE350E0E5
:103BF000CE0101960E94FE3521961FAE2197BE018F
:103C00006F5F7F4F812F0E94FE1CC05CDF4F0FB69D
:103C1000F894DEBF0FBECDBFDF91CF911F91089505
:103C2000FC0101900020E9F73197AF01481B590BC7
:103C3000BC0182E893E00C94C40F8F929F92AF92E4
:103C4000BF920F931F93CF93DF93CDB7DEB7A197AA
:103C50000FB6F894DEBF0FBECDBF19A2423008F4F4
:103C60004AE08E010F5D1F4F842E912CB12CA12CA8
:103C7000A50194010E943F36E62FB901CA01EA303E
:103C8000F4F4E05DD801EE938D01232B242B252B3A
:103C900079F790E080E0109719F0CD010E94101E96
:103CA000A1960FB6F894DEBF0FBECDBFDF91CF91C6
:103CB0001F910F91BF90AF909F908F900895E95CF6
:103CC000E1CF0C941D1EAB01682F70E090E080E006
:103CD0000C94611ECF93DF930E94B110EC0185EC30
:103CE00091E00E94101E8C0F9D1FDF91CF910895CF
:103CF0000E946A1E82E893E00C94CC10BC01990FDC
:103D0000880B990B4AE00C941D1E0F931F93CF93C1
:103D1000DF9381E792E00E94B1106AE070E0809149
:103D200053030E94631E89E692E00E94B1106AE08C
:103D300070E0809164030E94631E8BE592E00E9414
:103D4000B1106AE070E0809154030E94631E8EE41B
:103D500092E00E94B11081E090E00E947E1E89E412
:103D600092E00E94B11060915803709159038091C4
:103D70005A0390915B034AE050E00E94611E8EE37B
:103D800092E00E94B1106091600370916103809194
:103D90006203909163034AE050E00E94611E85E354
:103DA00092E00E94B110609165037091660380916A
:103DB0006703909168034AE050E00E94611E8CE224
:103DC00092E00E94B1106091600370916103809154
:103DD000620390916303009158031091590320915D
:103DE0005A0330915B03601B710B820B930B4AE00B
:103DF00050E00E94611E86E292E00E94B110C7EC82
:103E0000D2E06C817D818E819F814AE050E00E94EA
:103E1000611E8CE192E00E94B110688579858A85E7
:103E20009B854AE050E00E94611E83E192E00E947F
:103E3000B1106AE070E0809100010E94631E8EE084
:103E400092E00E94B1106AE070E08091BE020E9490
:103E5000631E85EC91E00E94101E82E893E0DF91E2
:103E6000CF911F910F910C94CC104F925F926F9253
:103E70007F928F929F92AF92BF92CF92DF92EF92FA
:103E8000FF920F931F93CF936B017C01742EAC01B3
:103E90009B010E94ED38882399F088EC91E0CF9146
:103EA0001F910F91FF90EF90DF90CF90BF90AF9058
:103EB0009F908F907F906F905F904F900C94101E0A
:103EC00046015701E894B7F82FEF3FEF4FE75FE760
:103ED000C501B4010E94ED3881110DC02FEF3FEFF5
:103EE0004FE75FE7C501B4010E94DD3618161CF4E8
:103EF0008CEC91E0D4CF2FEF3FEF4FE75FE4C701A9
:103F0000B6010E94353818161CF480ED91E0C7CF39
:103F10002FEF3FEF4FE75FECC701B6010E94DD36A0
:103F200087FDF3CF20E030E0A901C701B6010E9470
:103F3000DD3610E000E087FF0AC06DE282E893E022
:103F40000E9464108C01F7FAF094F7F8F094C0E046
:103F500060E070E080E09FE37C1641F020E030E01C
:103F600040E251E40E94E236CF5FF6CFA70196010E
:103F70000E9471362B013C010E9454374B015C01B9
:103F80004AE00E941D1E7C01E00EF11ECC23C1F10F
:103F9000C501B4010E9483379B01AC01C301B2018A
:103FA0000E9470364B015C016EE282E893E00E9451
:103FB0006410E80EF91EC15018F120E030E040E234
:103FC00051E4C501B4010E943A382B013C010E9422
:103FD00054374B01B12CA12C4AE0C501B4010E9419
:103FE0001D1EE80EF91EC501B4010E9483379B0116
:103FF000AC01C301B2010E9470364B015C01DBCF02
:10400000C701CF911F910F91FF90EF90DF90CF905C
:10401000BF90AF909F908F907F906F905F904F90E8
:104020000895CF93C82F8091010381114CC08EE871
:1040300093E00E94B1108C2F90E00E947E1E8AEACD
:1040400093E00E94B1106091EA027091EB028091BE
:10405000EC029091ED024AE050E00E94611E8091D6
:104060000103811109C082E893E00E94B1108091A0
:10407000000390E00E947E1E8AE793E00E94B11048
:104080006091EE027091EF028091F0029091F10246
:1040900042E00E94351F80E793E00E94B1106091DA
:1040A000F2027091F3028091F4029091F50242E0E5
:1040B0000E94351F85EC91E00E94101E82E893E07B
:1040C000CF910C94CC108BE993E0B3CFCF92DF92D9
:1040D000EF92FF920F931F93CF93DF93109264039D
:1040E0008FEF8093000160E87AE186E090E00E9423
:1040F000261D8091BC021092BC020E945E0F6B01D3
:104100007C0180919202811165C081E080939202CE
:10411000809391029FEF9093900210928F0293E010
:1041200090938E0280936D0280916D0280658093E2
:104130006D0280916C02813009F091C010926C0286
:104140000E945E0F6B017C0180916D028093BB0029
:104150008091B8029091B902A091BA02B091BB02CD
:10416000892B8A2B8B2BA1F00E945E0F0091B80245
:104170001091B9022091BA023091BB026C197D09ED
:104180008E099F09061717072807390708F443C047
:104190008091BC0083FDD8CF85EC8093BC000E9449
:1041A0005E0F6B017C0180919202813009F459C04D
:1041B00080918F02C4E0843010F4C0918F02AEE68B
:1041C000B2E0E2E0F2E080E08C1751F19D91919332
:1041D0008F5FFACF8091B8029091B902A091BA0294
:1041E000B091BB02892B8A2B8B2B09F48ACF0E94BA
:1041F0005E0F0091B8021091B9022091BA0230917D
:10420000BB026C197D098E099F090617170728073D
:10421000390708F076CF8091B7020E942D1CC0E0CC
:1042200010926B02C0936A02C093BE028091BC02DE
:104230008823C9F182E0809364038091640388231A
:10424000D9F180916B02C81332C080E0DF91CF9129
:104250001F910F91FF90EF90DF90CF90089585EE22
:104260009CCF8091B8029091B902A091BA02B0910E
:10427000BB02892B8A2B8B2B09F495CF0E945E0FF2
:104280000091B8021091B9022091BA023091BB029C
:104290006C197D098E099F0906171707280739072A
:1042A00008F081CFB8CFC43041F281E0C4CF8FE1B4
:1042B00094E00E945E1CC5CF8FE194E00E945E1CDA
:1042C000EC018FE194E00E945E1C182F8FE194E0D6
:1042D0000E945E1C082F8FE194E00E945E1CC09338
:1042E000BF021093C0020093C1028093C202CE01AC
:1042F00026E0959587952A95E1F783709927982F61
:104300008093000183E0923031F084E0933019F023
:10431000992319F085E080936403809164038111EF
:1043200094CFDC2FCC27CC27DF73C12BD093030392
:10433000C093020381E08ACFFC01A081B181509635
:104340002C9182AD38E0839FC0011124289FA001E9
:10435000299F500D112470E060E080AD91AD0C9468
:104360000D391F93CF93DF93EC010E94061B1BAD09
:104370008AAD180FE881F9818189181768F0EC81FE
:10438000FD8130E020E040E060E1CE01099580E071
:10439000DF91CF911F910895FE01E557FF4F808176
:1043A000882319F0CE010E949C21612FCE010E942A
:1043B000F31A81E0EDCFCF93DF93EC01FC01E557D9
:1043C000FF4F8081882319F0CE010E949C2160E07C
:1043D000CE01DF91CF910C94F31A2F923F924F921E
:1043E0005F926F927F928F929F92AF92BF92CF9285
:1043F000DF92EF92FF920F931F93CF93DF93CDB78E
:10440000DEB7C254D1090FB6F894DEBF0FBECDBFE0
:104410003C014B0187ED94E00E94DB21A1EDAA2E27
:10442000A0E0BA2EF12CE12C2501F3E0CF2ED12C07
:10443000C701429623969FAF8EAF2397F201249037
:1044400010E000E0312C80E190E0002E02C0959554
:1044500087950A94E2F782219321892B91F024E039
:1044600030E044E050E0B601C801880F991F880F82
:10447000991F2396EEADFFAD23978E0F9F1F0E94CD
:10448000B4160F5F1F4F05301105E9F6FFEF4F1A05
:104490005F0A84E0C80ED11C9FE1C916D10471F6F1
:1044A000E8E1EE0EF11CF7E0AF0EB11C80E6E81675
:1044B000F10409F0B9CF00E020E730E040E250E03D
:1044C00068E070E087ED94E00E9401140E94E71715
:1044D0008114910441F1B3018EE20E94E91DB401FF
:1044E0008DE30E94E91D87ED94E00E94B1218111C6
:1044F00095CFCE5BDF4F0FB6F894DEBF0FBECDBFBA
:10450000DF91CF911F910F91FF90EF90DF90CF90AF
:10451000BF90AF909F908F907F906F905F904F90E3
:104520003F902F9008954FE350E0B301CE010196E4
:104530000E94FE3521961FAE21979FE000E080E0AB
:10454000E1E0F0E0EC0FFD1FE00FF11D20812223E0
:1045500089F09150A1F0203209F4802F0F5FE1E043
:10456000F0E0EC0FFD1FE00FF11D2081207C2038D2
:10457000A9F3E6CFBE016F5F7F4F85E325C08111B0
:10458000082F10E0EE24E394F12CEC0EFD1EE00E5B
:10459000F11EF701D0801082BE016F5F7F4F8EE267
:1045A0000E94FE1CF701D08261E070E0F0E2DF16AD
:1045B00011F070E060E0600F711F81E090E08C0FFF
:1045C0009D1F680F791F8DE30E94FE1C8CCFCF9337
:1045D000DF93EC01109273031092710381E08093DA
:1045E000780370E060E0CE010E94ED21809101032C
:1045F00081110CC08EEA93E00E94B110CE010E949E
:104600006A1E80E0DF91CF910C94112080EC93E042
:10461000F3CF0F931F93CF9380915303823009F010
:1046200073C0009160031091610320916203309187
:104630006303011511052105310531F180915803FE
:1046400090915903A0915A03B0915B03892B8A2B57
:104650008B2BD1F44091CB025091CC026091CD02D2
:104660007091CE028091CF029091D002A091D102A0
:10467000B091D202840F951FA61FB71FE1E08017EB
:104680009107A207B30709F0E0E04091DF025091E3
:10469000E0026091E1027091E202452B462B472B2C
:1046A00049F070E060E08AEB91E0CF911F910F91AB
:1046B0000C94ED2160E971E084EA91E0E111F5CF1D
:1046C000809154038230B1F038F4813071F070E0A1
:1046D00060E08DEE90E0E9CF833089F08430B9F767
:1046E00070E060E08BE091E0E0CF70E060E084E7B4
:1046F00091E0DBCF64E471E088E591E0D6CF70E033
:1047000060E08AE291E0D1CF0E94B60F20E530E070
:1047100040E050E00E943F36C22FC77087ED94E022
:104720000E94DB210E94E7176DEF71E08FE00E948D
:10473000BD1D6FEE71E080E20E94BD1D6C2F82E115
:104740000E94C4156FED71E08DE30E94E91D87EDB5
:1047500094E00E94B1218111E5CFCF911F910F917B
:1047600008950F931F93CF93DF93EC01683109F401
:104770006EC058F46431F9F0F901673181F080E0DE
:10478000DF91CF911F910F910895693109F49CC079
:104790006032A9F76AE4CE010E94EC1056C04423AF
:1047A00009F453C081918EBD00000DB407FEFDCF0A
:1047B0008EB54150F4CFE881F9818C859D85AE8519
:1047C000BF85892B8A2B8B2B41F480859185A2850F
:1047D000B3858C879D87AE87BF87418169E4CE0111
:1047E0000E94EC10CFB7F89480916502811127C028
:1047F000EEE1F6E08491E2E3F6E09491E82FF0E058
:10480000EE0FFF1FE050FA4FA591B491EC91E92310
:1048100021F461E08AE00E94FF0E61E08AE00E94DC
:104820002D0F8CB580618CBD8CB580648CBD61E032
:104830008DE00E942D0F61E08BE00E942D0F809192
:1048400065028F5F80936502CFBF81E099CFE881D9
:10485000F981E485E15090E0E33020F4F0E0E95D97
:10486000FE4F90810C851D852E853F8540E052E1ED
:104870006AE770E080E0041715072607370740F461
:1048800076956795579547958F5F8630A1F787E0B6
:104890009C709065282F2695922B809581709CBDE9
:1048A0008DBDE881F981408169E4CE010E94EC1060
:1048B000A881B981EA85FB8530E020E012964C9111
:1048C0006CE2CE010995C1CFA881B981EA85FB854B
:1048D00030E020E013964C916CE20995E881F98173
:1048E000418169E458CF85ED8093BC008091B80286
:1048F0009091B902A091BA02B091BB020796A11D96
:10490000B11D23E0B695A795979587952A95D1F780
:104910002091BC0024FD03C01092920208954091A2
:10492000B8025091B9026091BA027091BB02452B56
:10493000462B472B69F30097A105B10541F02AE208
:104940002A95F1F700C00197A109B109E1CF809143
:10495000B7020C942D1C4F925F926F927F928F92B0
:104960009F92AF92BF92CF92DF92EF92FF920F93FE
:104970001F93CF93DF93CDB7DEB768970FB6F89448
:10498000DEBF0FBECDBF0E945E0F4B015C01809168
:1049900073039E012F5F3F4F7901882309F4C1C043
:1049A0006091FD017091FE018091FF0190910002E4
:1049B0002AE0422E512C612C712CA30192010E94FD
:1049C0003F36CA01B9012AE0A7010E940D36F7015E
:1049D00001900020E9F731978F010E191F09F701A7
:1049E000E00FF11D8EE28083CC24C394C00ECE0C68
:1049F000DF2CD11C6091FD017091FE018091FF01BF
:104A000090910002A30192010E943F36605DF60181
:104A1000608382E0800F67E573E08E0D9F2D911D0E
:104A20000E94F7350E94E71780917303882309F4E9
:104A30008AC08091010361E473E0811108C0809114
:104A4000BD0266E373E0882311F067E273E08FE054
:104A50000E94BD1D6091F8018DE00E94C415B70150
:104A600088E20E94FE1C00E020E630E04DE250E0CB
:104A700060E170E087ED94E00E9401146091F9011B
:104A80007091FA018091FB019091FC012AE0A7014D
:104A90000E940D3661E573E0C7010E94EC35B70155
:104AA0008DE30E94FE1C87ED94E00E94B12191E00D
:104AB000811101C090E0909371030E945E0FDC01B0
:104AC000CB0188199909AA09BB09009169031091C2
:104AD0006A0320916B0330916C03081719072A07AA
:104AE0003B0740F48093690390936A03A0936B03A0
:104AF000B0936C0368960FB6F894DEBF0FBECDBFBF
:104B0000DF91CF911F910F91FF90EF90DF90CF90A9
:104B1000BF90AF909F908F907F906F905F904F90DD
:104B200008956091F9017091FA018091FB019091D3
:104B3000FC012AE0A7010E940D3664E573E0C7017D
:104B40000E94EC356FCF66E173E08FE00E94BD1DDF
:104B50006AE073E080E20E94BD1D6091F80182E18D
:104B60000E94C415B7018EE20E94FE1C6AEF72E03B
:104B70008DE30E94E91D97CFCF92DF92EF92FF92D3
:104B80000F931F930E945E0FF0907303FF2009F4B0
:104B900094C00091FC021091FD022091FE02309120
:104BA000FF02601B710B820B930B28EE33E040E099
:104BB00050E00E943F36E0900003FF2009F48EC0D1
:104BC00080910103882309F4A5C0283883E13807C0
:104BD0004105510508F07AC088E893E1A0E0B0E013
:104BE000BC01CD01621B730B840B950B69517C4F8B
:104BF0008F4F9F4F28EE33E040E050E00E943F3659
:104C00002093F9013093FA014093FB015093FC018A
:104C1000E092BD02FF20C9F1C090EE02D090EF02F9
:104C2000E090F002F090F102E894F7F820E030E034
:104C300040E450E4C701B6010E94DD3618160CF0BE
:104C400049C0A7019601C701B6010E9471362DEC3B
:104C50003CEC4CE95FE30E94E2360E94AD3820E074
:104C600030E040E251E40E943A3820E030E040E099
:104C70005FE30E9471360E9454376093FD01709388
:104C8000FE018093FF01909300020E94B60F20E581
:104C900030E040E050E00E943F3627702093F8015A
:104CA00081E08093710387ED94E01F910F91FF9055
:104CB000EF90DF90CF900C94DB2100910C031091CA
:104CC0000D0320910E0330910F036BCF60E070E075
:104CD000CB018CCF60E070E0CB01C1CF203187E207
:104CE000380741055105E0F01092F9011092FA01E0
:104CF0001092FB011092FC01E092BD02C6CF10920F
:104D0000F9011092FA011092FB011092FC01E0925D
:104D1000BD0282CF203187E238074105510578F77F
:104D200080E197E2A0E0B0E05BCF80911503909125
:104D30001603A0911703B091180382309105A105C5
:104D4000B105B0F0BC01CD01615071098109910933
:104D50000E9483379B01AC0160912303709124036F
:104D600080912503909126030E94E2360C94AD3881
:104D700060E070E0CB01FACFCF92DF92EF92FF922A
:104D80008EEE92E00E94B1108091100390E00E949C
:104D90007E1E8AEE92E00E94B11060911503709120
:104DA000160380911703909118034AE050E00E9487
:104DB000611E80EE92E00E94B11060911D0370911F
:104DC0001E0390E080E04AE00E941D1E86ED92E006
:104DD0000E94B11060911F03709120038091210304
:104DE0009091220343E00E94351F8CEC92E00E94D8
:104DF000B11020912703309128034091290350914D
:104E00002A0360912B0370912C0380912D039091C4
:104E10002E030E94703643E00E94351F84EC92E01E
:104E20000E94B1100E94952643E00E94351F83EB3B
:104E300092E00E94B11020913B0330913C034091DD
:104E40003D0350913E0360913F0370914003809178
:104E50004103909142030E94703643E00E94351F47
:104E600086EA92E00E94B110C0904B03D0904C03B0
:104E7000E0904D03F0904E0320E030E0A901C7011F
:104E8000B6010E94353818160CF04EC0A7019601E5
:104E900060914F03709150038091510390915203A0
:104EA0000E94E23643E00E94351F85EC91E00E94AB
:104EB000101E81E992E00E94B11060910803709188
:104EC000090380910A0390910B034AE050E00E948D
:104ED000611E87E892E00E94B11060910403709116
:104EE000050380910603909107034AE050E00E9479
:104EF000611E8DE792E00E94B1106091690370918C
:104F00006A0380916B0390916C034AE00E941D1E1E
:104F100085EC91E00E94101E82E893E0FF90EF90F4
:104F2000DF90CF900C94CC1060E070E0CB01BACF52
:104F3000CF93DF93EC01109272031092710381E022
:104F40008093780370E060E0CE010E94ED218EE551
:104F500093E00E94B110CE010E946A1EDF91CF91B2
:104F60000C94BC26E0916403E1508EEE93E0E430B3
:104F700038F4F0E0EE0FFF1FE15EFE4F808191817B
:104F800020917303222321F10E94E72282EE93E015
:104F90000E94B1106AE070E0809164030E94631E79
:104FA00089ED93E00E94B1106AE070E08091000109
:104FB0000E94631E84ED93E00E94B1106AE070E0ED
:104FC0008091BE020E94631E85EC91E00C94101E3D
:104FD0000E949827DBCF1F920F920FB60F921124D9
:104FE0002F933F938F939F93AF93BF9380917A03B7
:104FF00090917B03A0917C03B0917D033091790364
:1050000023E0230F2D3758F50196A11DB11D2093E4
:10501000790380937A0390937B03A0937C03B093EE
:105020007D0380917E0390917F03A0918003B091D6
:1050300081030196A11DB11D80937E0390937F0390
:10504000A0938003B0938103BF91AF919F918F9103
:105050003F912F910F900FBE0F901F90189526E84B
:10506000230F0296A11DB11DD2CF1F920F920FB632
:105070000F9211242F933F934F935F936F937F93DE
:105080008F939F93AF93BF93EF93FF9382E893E047
:105090000E944210FF91EF91BF91AF919F918F912C
:1050A0007F916F915F914F913F912F910F900FBE24
:1050B0000F901F9018951F920F920FB60F92112408
:1050C0002F938F939F93EF93FF93E0919203F0912F
:1050D00093038081E0919803F091990382FD1BC0B6
:1050E000908180919B038F5F8F7320919C03821727
:1050F00041F0E0919B03F0E0EE57FC4F958F8093D9
:105100009B03FF91EF919F918F912F910F900FBE75
:105110000F901F9018958081F4CF1F920F920FB6B9
:105120000F9211242F933F934F935F936F937F932D
:105130008F939F93AF93BF93EF93FF938091B900A9
:10514000887F803609F44AC0F0F5883209F4A7C098
:1051500018F5803109F49BC0B8F4882309F4F9C02C
:10516000883009F494C0FF91EF91BF91AF919F9166
:105170008F917F916F915F914F913F912F910F9000
:105180000FBE0F901F901895883109F488C08032A7
:1051900051F78093900214C0803409F49DC040F40C
:1051A0008033B9F38833F9F68093900285ECB0C070
:1051B000803509F485C0883509F496C0883499F69D
:1051C0000E947324D0CF883909F48CC038F5883711
:1051D00029F050F4883611F0803729F683E0809367
:1051E00092021092640257C0883809F47BC080395B
:1051F00019F0803809F0B7CF80916402803208F04E
:1052000071C0E091640281E08E0F8093640280910E
:10521000BB00F0E0EC5BFD4F80833DC0803B39F08C
:10522000E0F4803A09F479C0883A09F09CCF84E030
:10523000809392021092430210924202E09168021F
:10524000F091690209958091420281110FC081E0BD
:10525000809342021092220209C0803C09F4A6CF3A
:10526000883C09F4A3CF883B09F07DCFE09143024D
:1052700081E08E0F80934302F0E0EE5DFD4F808170
:105280008093BB00909143028091420229C080919B
:105290006D028093BB0085EC8093BC0064CF90913D
:1052A0008F0280918E02981758F5E0918F0281E06D
:1052B0008E0F80938F02F0E0E259FD4F8081E9CF9D
:1052C000E0918F0281E08E0F80938F028091BB006E
:1052D000F0E0E259FD4F808390918F0280918E0221
:1052E0009817C8F285E8D8CFE0918F0281E08E0F41
:1052F00080938F028091BB00F0E0E259FD4F8083E4
:105300008091910281115CCF81E080936C0284EAEC
:105310008093BC001092920226CF85EC8093BC0053
:105320001092920280916402803230F4E091640223
:10533000F0E0EC5BFD4F10826091640270E0E09160
:105340006602F091670284E492E00995109264028B
:105350000ACF1092900234CF1F920F920FB60F9285
:1053600011242F933F934F935F936F937F938F936A
:105370009F93AF93BF93CF93DF93EF93FF9380916E
:105380000102C0914F04D0E087FF24C01092850035
:1053900010928400809101028F5F809301028091BE
:1053A0000102082E000C990B8C179D0724F48091A4
:1053B00001028C30C4F180918400909185000496A4
:1053C00080349C4908F47AC08091840090918500D3
:1053D000049676C080910102082E000C990B8C1760
:1053E0009D07C4F6E09101028E2FEE0F990BFC0190
:1053F000EE0FFF1FE80FF91FE55DFB4F808186FF71
:10540000C9CFE09101028E2FEE0F990BFC01EE0F38
:10541000FF1FE80FF91FE55DFB4F808160E08F7390
:105420000E94FF0EB7CF2091840030918500E0915B
:1054300001028E2FEE0F990BFC01EE0FFF1FE80FFC
:10544000F91FE55DFB4F81819281820F931F90933D
:10545000890080938800E09101028E2FEE0F990B56
:10546000FC01EE0FFF1FE80FF91FE55DFB4F808188
:1054700086FF11C0E09101028E2FEE0F990BFC0107
:10548000EE0FFF1FE80FF91FE55DFB4F808161E024
:105490008F730E94FF0EFF91EF91DF91CF91BF912B
:1054A000AF919F918F917F916F915F914F913F91BC
:1054B0002F910F900FBE0F901F90189580E49CE9DC
:1054C00090938900809388008FEF80930102E3CF4F
:1054D000CF93109285031092840388EE93E0A0E0AE
:1054E000B0E08093860390938703A0938803B093E2
:1054F000890323E931E0309383032093820325EC71
:1055000030E030938F0320938E0324EC30E030930F
:1055100091032093900320EC30E030939303209389
:10552000920321EC30E0309395032093940322EC16
:1055300030E0309397032093960326EC30E03093CD
:1055400099032093980310929B0310929C0310924E
:105550009D0310929E0310922204109221048093C6
:10556000230490932404A0932504B093260485EA91
:1055700091E09093200480931F041092D60410921F
:10558000D50482E59EE090936405809363051092B4
:1055900066051092650510926805109267051092D5
:1055A000EF0487EB91E09093D4048093D30410929E
:1055B000D8041092D7041092EC041092E3041092D5
:1055C000E4041092E5041092E6048FEF8093ED045A
:1055D0008093F104E5EFF4E08BE095E0CFEFC19329
:1055E0008E179F07E1F78AE691E19093DC048093A0
:1055F000DB0489E392E19093DE048093DD0481EB88
:1056000093E29093E0048093DF0482E69BE1909321
:10561000E2048093E10430E020E040E069E087EDBF
:1056200094E00E946A1110923205109231058CE5C7
:105630009EE090930C0580930B0580E594E0909399
:10564000100580930F0581E08093110510921205DB
:10565000109240051092600510925C0580936105E0
:10566000809362058FEB91E090930E0580930D057A
:1056700087ED94E00E94C21210922A05109229052B
:1056800010922E0510922D058FEF9FEF90932C0511
:1056900080932B059093300580932F05E0910D05A5
:1056A000F0910E050280F381E02D87ED94E00995DD
:1056B0008BEC9EE090933405809333051092430564
:1056C00089E08093FE0488E08093FF048AE0809361
:1056D000000580914F048C30A0F491E0980F9093D6
:1056E0004F048093D00490E0FC01EE0FFF1FE80F01
:1056F000F91FE55DFB4F88EB9BE092838183CF919F
:105700000895C093D004FBCFCF93DF93CDB7DEB71E
:10571000A2970FB6F894DEBF0FBECDBF789484B5C4
:10572000826084BD84B5816084BD85B5826085BD9D
:1057300085B5816085BD80916E00816080936E002B
:10574000109281008091810082608093810080911D
:1057500081008160809381008091800081608093CE
:1057600080008091B10084608093B1008091B0008E
:1057700081608093B00080917A00846080937A0089
:1057800080917A00826080937A0080917A008160B3
:1057900080937A0080917A00806880937A001092DA
:1057A000C100E0919203F091930382E08083E09145
:1057B0008E03F0918F031082E0919003F09191039A
:1057C00080E1808310929A03E0919603F091970311
:1057D00086E08083E0919403F0919503808180615D
:1057E0008083E0919403F0919503808188608083A9
:1057F000E0919403F0919503808180688083E0912B
:105800009403F091950380818F7D808384E994E0F7
:105810000E946A1E87E894E00E94B11060E170E087
:10582000809169050E94631E85EC91E00E94101E24
:1058300087E794E00E94781EE091DB04F091DC049D
:1058400030E020E040E06AE087ED94E0099587EDE4
:1058500094E00E94DB2187ED94E00E94B121811148
:10586000FACF60E087ED94E00E94F31AE091DB0448
:10587000F091DC0430E020E040E06BE087ED94E064
:105880000995E091DB04F091DC0430E020E044EB8A
:105890006EE087ED94E0099588E694E00E94781E1A
:1058A00010926B0210926A02109294021092B60249
:1058B0000E940F1C82EC9FE0909369028093680223
:1058C00083EC9FE0909367028093660260E87AE140
:1058D00086E090E00E94261D1092BC0288EB9BE0BF
:1058E000A0E0B0E08093B8029093B902A093BA020E
:1058F000B093BB0281E08093B7026AEF70E080E072
:1059000090E00E94830F8091B9008370880F01E0BE
:1059100010E002C0000F111F8A95E2F786E394E0C1
:105920000E94B1104AE050E060E87AE186E090E041
:105930000E94611E89E294E00E94B1102091B8009B
:1059400030E0D8010E9461369B01AC01285F3F4FD7
:105950004F4F5F4F220F331F441F551F60E074E20B
:1059600084EF90E00E943F36CA01B9014AE050E05E
:105970000E94611E82E294E00E94B1108091B80002
:105980006AE070E00E94631E86E194E00E94B1101C
:10599000B80190E080E04AE00E941D1E85EC91E095
:1059A0000E94101E82E893E00E94CC1087E594E0EC
:1059B0000E94781E0E94092387E494E00E94781ECA
:1059C0000E945E0F68577C4E8F4F9F4F6093740309
:1059D00070937503809376039093770330E1232EC1
:1059E000312C80917803882309F41DC10E94B60FE1
:1059F0000091E6021091E7022091E8023091E9025D
:105A00006B017C01C01AD10AE20AF30A97018601F0
:105A10000A3F11052105310508F4CEC06093E60266
:105A20007093E7028093E8029093E9028091BC02B0
:105A30001092BC0260EA76E881E090E00E94261DA8
:105A400081E08093930288E28093B50210929402E1
:105A50001092B6020E945E0F6B017C01809192024F
:105A6000811164C082E08093920281E08093910270
:105A70008FEF8093900210928F0210928E021092FC
:105A80006D0280916D02806580936D0280916C0241
:105A9000813009F09EC010926C020E945E0F6B0173
:105AA0007C0180916D028093BB008091B80290913F
:105AB000B902A091BA02B091BB02892B8A2B8B2B21
:105AC000A1F00E945E0F0091B8021091B9022091DE
:105AD000BA023091BB026C197D098E099F09061725
